:020000040000fa
:080000000002040000000000f2
:020000040000fa
:040008000e030000e3
:020000040000fa
:04000c0020030000cd
:020000040000fa
:0400100038030000b1
:020000040000fa
:0400140016030000cf
:020000040000fa
:0400180028030000b9
:020000040000fa
:04001c0030030000ad
:020000040000fa
:040020004003000099
:020000040000fa
:04002400e6030000ef
:020000040000fa
:04002800e6030000eb
:020000040000fa
:04002c00e6030000e7
:020000040000fa
:04003000e6030000e3
:020000040000fa
:04003400e6030000df
:020000040000fa
:04003800e6030000db
:020000040000fa
:04003c00e6030000d7
:020000040000fa
:04004000e6030000d3
:020000040000fa
:04004400b003000005
:020000040000fa
:04004800e6030000cb
:020000040000fa
:04004c00e6030000c7
:020000040000fa
:04005000e6030000c3
:020000040000fa
:04005400e6030000bf
:020000040000fa
:04005800e6030000bb
:020000040000fa
:04005c00e6030000b7
:020000040000fa
:04006000e6030000b3
:020000040000fa
:04006400e6030000af
:020000040000fa
:04006800e6030000ab
:020000040000fa
:04006c00e6030000a7
:020000040000fa
:04007000e6030000a3
:020000040000fa
:040074008203000003
:020000040000fa
:04007800e60300009b
:020000040000fa
:04007c00e603000097
:020000040000fa
:04008000e603000093
:020000040000fa
:04008400e60300008f
:020000040000fa
:04008800e60300008b
:020000040000fa
:04008c00e603000087
:020000040000fa
:04009000e603000083
:020000040000fa
:04009400e60300007f
:020000040000fa
:04009800e60300007b
:020000040000fa
:04009c00e603000077
:020000040000fa
:0400a000e603000073
:020000040000fa
:0400a400e60300006f
:020000040000fa
:0400a800e60300006b
:020000040000fa
:0400ac00e603000067
:020000040000fa
:0400b000e603000063
:020000040000fa
:0400b400e60300005f
:020000040000fa
:0400b800e60300005b
:020000040000fa
:0400bc00e603000057
:020000040000fa
:0400c000e603000053
:020000040000fa
:0400c400e60300004f
:020000040000fa
:0400c800e60300004b
:020000040000fa
:0400cc00e603000047
:020000040000fa
:0400d000e603000043
:020000040000fa
:0400d400e60300003f
:020000040000fa
:0400d800e60300003b
:020000040000fa
:0400dc00e603000037
:020000040000fa
:0400e000e603000033
:020000040000fa
:0400e400e60300002f
:020000040000fa
:0400e800e60300002b
:020000040000fa
:0400ec00e603000027
:020000040000fa
:0400f000e603000023
:020000040000fa
:0400f400e60300001f
:020000040000fa
:0400f800e60300001b
:020000040000fa
:0400fc00e603000017
:020000040000fa
:04010000e603000012
:020000040000fa
:04010400e60300000e
:020000040000fa
:04010800e60300000a
:020000040000fa
:04010c00e603000006
:020000040000fa
:04011000e603000002
:020000040000fa
:04011400e6030000fe
:020000040000fa
:04011800e6030000fa
:020000040000fa
:04011c00e6030000f6
:020000040000fa
:04012000e6030000f2
:020000040000fa
:04012400e6030000ee
:020000040000fa
:04012800e6030000ea
:020000040000fa
:04012c00e6030000e6
:020000040000fa
:04013000e6030000e2
:020000040000fa
:04013400e6030000de
:020000040000fa
:04013800e6030000da
:020000040000fa
:04013c00e6030000d6
:020000040000fa
:04014000e6030000d2
:020000040000fa
:04014400e6030000ce
:020000040000fa
:04014800e6030000ca
:020000040000fa
:04014c00e6030000c6
:020000040000fa
:04015000e6030000c2
:020000040000fa
:04015400e6030000be
:020000040000fa
:04015800e6030000ba
:020000040000fa
:04015c00e6030000b6
:020000040000fa
:04016000e6030000b2
:020000040000fa
:04016400e6030000ae
:020000040000fa
:04016800e6030000aa
:020000040000fa
:04016c00e6030000a6
:020000040000fa
:04017000e6030000a2
:020000040000fa
:04017400e60300009e
:020000040000fa
:04017800e60300009a
:020000040000fa
:04017c00e603000096
:020000040000fa
:04018000e603000092
:020000040000fa
:04018400e60300008e
:020000040000fa
:04018800e60300008a
:020000040000fa
:04018c00e603000086
:020000040000fa
:04019000e603000082
:020000040000fa
:04019400e60300007e
:020000040000fa
:04019800e60300007a
:020000040000fa
:04019c00e603000076
:020000040000fa
:0401a000e603000072
:020000040000fa
:0401a400e60300006e
:020000040000fa
:0401a800e60300006a
:020000040000fa
:0401ac00e603000066
:020000040000fa
:0401b000e603000062
:020000040000fa
:0401b400e60300005e
:020000040000fa
:0401b800e60300005a
:020000040000fa
:0401bc00e603000056
:020000040000fa
:0401c000e603000052
:020000040000fa
:0401c400e60300004e
:020000040000fa
:0401c800e60300004a
:020000040000fa
:0401cc00e603000046
:020000040000fa
:0401d000e603000042
:020000040000fa
:0401d400e60300003e
:020000040000fa
:0401d800e60300003a
:020000040000fa
:0401dc00e603000036
:020000040000fa
:0401e000e603000032
:020000040000fa
:0401e400e60300002e
:020000040000fa
:0401e800e60300002a
:020000040000fa
:0401ec00e603000026
:020000040000fa
:0401f000e603000022
:020000040000fa
:0401f400e60300001e
:020000040000fa
:0401f800e60300001a
:020000040000fa
:0401fc00e603000016
:020000040000fa
:04020000e603000011
:020000040000fa
:04020400e60300000d
:020000040000fa
:04020800e603000009
:020000040000fa
:04020c00e603000005
:020000040000fa
:04021000e603000001
:020000040000fa
:04021400e6030000fd
:020000040000fa
:04021800e6030000f9
:020000040000fa
:04021c00e6030000f5
:020000040000fa
:04022000e6030000f1
:020000040000fa
:04022400e6030000ed
:020000040000fa
:04022800e6030000e9
:020000040000fa
:04022c00e6030000e5
:020000040000fa
:04023000e6030000e1
:020000040000fa
:04023400e6030000dd
:020000040000fa
:04023800e6030000d9
:020000040000fa
:04023c00e6030000d5
:020000040000fa
:04024000e6030000d1
:020000040000fa
:04024400e6030000cd
:020000040000fa
:04024800e6030000c9
:020000040000fa
:04024c00e6030000c5
:020000040000fa
:04025000e6030000c1
:020000040000fa
:04025400e6030000bd
:020000040000fa
:04025800e6030000b9
:020000040000fa
:04025c00e6030000b5
:020000040000fa
:04026000e6030000b1
:020000040000fa
:04026400e6030000ad
:020000040000fa
:04026800e6030000a9
:020000040000fa
:04026c00e6030000a5
:020000040000fa
:04027000e6030000a1
:020000040000fa
:04027400e60300009d
:020000040000fa
:04027800e603000099
:020000040000fa
:04027c00e603000095
:020000040000fa
:04028000e603000091
:020000040000fa
:04028400e60300008d
:020000040000fa
:04028800e603000089
:020000040000fa
:04028c00e603000085
:020000040000fa
:04029000e603000081
:020000040000fa
:04029400e60300007d
:020000040000fa
:04029800e603000079
:020000040000fa
:04029c00e603000075
:020000040000fa
:0402a000e603000071
:020000040000fa
:0402a400e60300006d
:020000040000fa
:0402a800e603000069
:020000040000fa
:0402ac00e603000065
:020000040000fa
:0402b000e603000061
:020000040000fa
:0402b400e60300005d
:020000040000fa
:0402b800e603000059
:020000040000fa
:0402bc00e603000055
:020000040000fa
:0402c000e603000051
:020000040000fa
:0402c400e60300004d
:020000040000fa
:0402c800e603000049
:020000040000fa
:0402cc00e603000045
:020000040000fa
:0402d000e603000041
:020000040000fa
:0402d400e60300003d
:020000040000fa
:0402d800e603000039
:020000040000fa
:0402dc00e603000035
:020000040000fa
:0402e000e603000031
:020000040000fa
:0402e400e60300002d
:020000040000fa
:0402e800e603000029
:020000040000fa
:0402ec00e603000025
:020000040000fa
:0402f000e603000021
:020000040000fa
:0402f400e60300001d
:020000040000fa
:0402f800e603000019
:020000040000fa
:0402fc00e603000015
:020000040000fa
:04030000e603000010
:020000040000fa
:04030400e60300000c
:020000040000fa
:04030800e603000008
:020000040000fa
:04030c00e603000004
:020000040000fa
:04031000e603000000
:020000040000fa
:10040000ef0821000eff24000e018800000000000c
:10041000000020000000e000020032000001200087
:100420002002880014000700ea0007000000e00036
:1004300003003a00201621000100200002003700ce
:100440000000200001002000810f70000100320038
:100450000f000700000020000000e0000200320052
:1004600000000200000000007a0602000000000008
:100470000040da000000fe00200020000000e00044
:1004800002003200100020009001880000000600e9
:10049000a1028800800478000000eb001f003700f4
:1004a000e284440054a0b4009905ba00e2844400f8
:1004b00054a0b4009906ba00e284440054a0b400e9
:1004c0000006eb00476fde00fd07b200ae018800ba
:1004d000636ce10003003a000ad801000000eb0061
:1004e0000e003700606ce10008003a00004deb00a0
:1004f0000a05e800020039003420ec000af0a000f0
:100500008b05e900f9ff3e00040037006168e10057
:10051000010032000086eb000b00070019c7ba008b
:100520000e04e0001905ba0003003a000a00e000da
:10053000dbff3a0000000600fe07b200ae028800b2
:100540008a047800f5ff37000cd0a300e20f4d00bd
:100550001c00390089027800354dba000a05e80010
:10056000020039003420ec000af0a0008b05e900fd
:100570000f003200254dba000a05e80002003900dc
:100580003420ec000af0a0008b05e90008003200de
:100590000c00e0000600320015cdba000a05e800a4
:1005a000020039003420ec000af0a0008b05e900bd
:1005b0008984e80054a0b4000b00e000e2ff3a0098
:1005c000000006009902ba00055d78008b05e9007d
:1005d000f7ff3200c82ade00055d78008b05e900d0
:1005e000f3ff32000c00e000f1ff320019ddba0029
:1005f000eeff37006210040000000000940f0400ba
:1006000000000000fa10040000000000ee040400e6
:10061000000000005c060400000000003600f80046
:10062000c028a9000000eb006b0707003600f800a7
:100630006d070700c048a9001000200066070700ea
:100640003600f800c068a9002000200062070700fb
:100650003600f800c088a900300020005e070700bf
:100660003600f800c0a8a900400020005a07070083
:100670003600f800c608a9007000200056070700e1
:100680003600f80021468000001020000080600045
:100690000000e00003003200c508a900c0002000ef
:1006a0004d07070021468000000028000080600000
:1006b0000000e00003003200c5e8a900800020002f
:1006c00045070700214680000002200000806000ee
:1006d0000000e00003003200c4a8a9009000200040
:1006e0003d07070020468000700060000000e00029
:1006f00003003200c488a900a000200036070700cc
:10070000ffff37003600f800809fbe00829fbe00ca
:10071000849fbe00869fbe000000fa00104080004b
:10072000680060000000e0000600320030818000b8
:100730000000e00002003200308180000000010073
:100740000268a9000080fa004f03be004f02be00fd
:100750004f01be004f00be003600f9000040060009
:100760003600f800809fbe00829fbe00849fbe00be
:10077000869fbe000000fa00408180000000e0007b
:10078000020032004081800000000100d0082100fa
:10079000104078008040e800d0082100014878002f
:1007a000c008210011c0b3000148780000e8a9008a
:1007b0000080fa004f03be004f02be004f01be0092
:1007c0004f00be003600f900004006000040da008d
:1007d0000000fe00000005006022b80006022000b4
:1007e0000000d0008180d2000482d2008582d20035
:1007f0000000a0000202520083825a000300310070
:100800000202420083824a000000a1000603e900c0
:10081000f3ff3a0000000600800078000101780034
:100820003104e000fdff3a00000051000000060026
:020000040000fa
:100830000000fa000060fe000080fa0000000600e0
:100840000200fa00000f78001e007800e10f50004f
:1008500009003200e10f500005003900e20f50009e
:1008600007003200e30f5000070032000800370095
:1008700001eba8000600370011eba80004003700c8
:1008800021eba8000200370031eba80000000000b7
:100890000080fa00000006000400fa00000f780053
:1008a000110798001e007800e10f50000b00320085
:1008b000e10f500005003900e20f50000b0032003c
:1008c000e30f50000d003200100037009e00900032
:1008d00021588800062bef000c0037009e00900086
:1008e000a1588800162bef00080037009e009000ea
:1008f00021598800262bef00040037009e0090004d
:10090000a1598800362bef00000000000080fa009b
:10091000000006000400fa00000f7800110798009c
:100920001e007800e10f50000a003200e10f500075
:1009300005003900e20f500009003200e30f5000bb
:100940000a0032000c0037009e00900061588800b9
:10095000090037009e009000e1588800060037002b
:100960009e00900061598800030037009e009000af
:10097000e1598800000000000080fa000000060035
:100980000600fa0040479800186ea9004e409000fb
:10099000130307000040eb00110307000080fb0079
:1009a000000f78000040eb000d0307000080fb0003
:1009b00010079800186ea8001e007800c500dd0022
:1009c0001e0090004300de0081007000f0ff200058
:1009d000008060000080fa00000006000600fa00b7
:1009e00010708000610060000000e00069003a00c3
:1009f000e000210090007800e00021001100980044
:100a0000e000210090009000e0002100210098000b
:100a1000e0002100a0009000e000210031009800db
:100a20000040eb00004f7800370037000040eb003b
:100a3000204798001e80fb00e1002100008040005c
:100a4000904078004147980000c8b30030479800b4
:100a50000040eb0010479800220037000000000023
:100a600010708000620060000000e000fcff3200b7
:100a7000ce4090003e40900000c060000004e000c6
:100a800002003200194ea80001003700194ea900db
:100a90003e4090000080fb000000d10030479800ed
:100aa0002e409000004040002047980000000000c9
:100ab00010708000620060000000e000fcff3a005f
:100ac000b07080004b00de0061406000ae409000de
:100ad00000c07000204798001e4090000040e800d1
:100ae000104798001e409000e74f5000dbff360093
:100af0001e80fb002100210000804000ae409000dd
:100b0000014878001e4fe8001e407800e74f500073
:100b1000c6ff360020002100900078002000210050
:100b200030009000808f500010003a00200021001b
:100b3000900078002000210020009000808f50005d
:100b40000a003a00200021009000780020002100d7
:100b500010009000808f500004003a002000210017
:100b600010007800608088000a30ef00508080001c
:100b70000000e8005080880050808000e40f5000a2
:100b80000500360050002000508088000c30ef0037
:100b900001003700000000000080fa00000006009d
:100ba0000600fa00200798002e009000e70f500082
:100bb00002003e000000eb00240037002e009000f1
:100bc000680050008000eb00008fbe009e00900087
:100bd000008328008089b9001e007800e100b90078
:100be000000141009e007800008328000008b80042
:100bf0000101410082007800008fbe00008fbe001e
:100c00001e0078009e009000723e2000030020002d
:100c1000f1fe0700008fbe00220320000300200029
:100c20001e0f41005e9749001e0078009e00900054
:100c30004206200003002000e7fe0700008fbe00f0
:100c40009e007800f0ff2000008060000080fa0025
:100c5000000006000600fa00200798002e00900011
:100c60008000eb00c26328008289b900e102b9006c
:100c70008401780003014100c36328000300b80029
:100c80000101410082007800008fbe00008fbe008d
:100c90001e0078009e0090000283280013002000b0
:100ca000cdfe0700008fbe001e00780068004000e7
:100cb0000080fa00000006000000fa00f0808000ca
:100cc0000000e00003003200f08080000000e90036
:100cd000f0808800008180000000e0000300320006
:100ce000008180000000e900008188000080fa0097
:100cf000000006001a00fa0064050700e04e20001c
:100d0000f3040700c06520008a0407000000eb0020
:100d1000cbfe070000302000800078000000eb00d0
:100d2000fcfe070000002100800078000000eb00be
:100d3000d9fe0700262cef00462cef00192ea90043
:100d400040ba2700a106200088050700b8fe07006a
:100d500080c0b3003e0107000000eb005007980080
:100d60000000eb00000f78000040eb00404f9800bf
:100d70000040eb00504f98000040eb00604f98009f
:100d80000040eb00704f98000040eb0000579800c7
:100d90000040eb00105798000000eb00100798008f
:100da000090037000002200030618800605f2a00df
:100db000a10020006d0507009dfe07001e009000a9
:100dc0000000e800100798009e009000b01220007c
:100dd000808f5000f3ff360000c0eb00e8fe0700f4
:100de0006fff0700e0808800e18080001003200092
:100df000808f500007003c000000eb005007980077
:100e000040c0b30022f0b700803e2000008188007f
:100e100002003700009021005007980084fe070070
:100e200000c0eb00d6fe07005dff0700e0808800f1
:100e3000204d200020079800018080003107980095
:100e4000be00900030b52000808f500002003e00b0
:100e500040b5200030079800be00900040d320002d
:100e6000808f50000200360040d3200030079800e9
:100e700080b12200f10f2000100f9800210f980080
:100e80003e0090008000eb000001be001e089000b4
:100e9000ae08900050fe0700100f9800210f980038
:100ea0009e089000310f9800b17080000010200063
:100eb000008060000000e00003003a002e00900077
:100ec00000d0a000200798000e5090000004e00021
:100ed000030032002e00900000e0a00020079800e0
:100ee0007e4890000004e000030032002e009000d5
:100ef00000f0a00020079800e0002100ae00900064
:100f00000108780080bb200052ff0700c0808800e5
:100f1000c08080000002b000d080880017d0bf00e1
:100f20000080fb0080004000c002210000804000e3
:100f300090007800410f980017d0bf008080fb0020
:100f4000e280800081814000c10221008180410057
:100f5000820878000040e80017f0b70017d0bf0003
:100f6000ef4f5000010036001770ef00e180800065
:100f7000e0808000808040004e089000008050009b
:100f8000400798004e0090000000e00002003d0085
:100f90000000eb0040079800c18080004e009000e8
:100fa000808f5000080034009e007800748f40004d
:100fb0009e0078003e089000808f500002003600ae
:100fc000be089000010f7800c18080004e009000a4
:100fd000808f500013003d00d18080004e009000b3
:100fe000808f50000a003d00f01320009e00780022
:100ff000808f50000300340001ec2f001e8f400052
:10100000080037000000eb00000f780005003700f3
:101010001e0078000000e000020034009e0078000e
:10102000748f500000902100306188001e0078000d
:101030003062880079ff37000200fa00004f780024
:1010400010c0b300570007000000e00002003200ab
:10105000100020000b003700800921001100200043
:10106000c204070000c8b3009e40780080cf500043
:1010700002003a0010002000020037001e407800f5
:10108000480007000080fa00000006000600fa0091
:1010900020079800730107000000e0000200320002
:1010a000100020003d003700c0c7b3008a010700d0
:1010b0000000e0000200320010002000370037007e
:1010c000c8010700e24f500002003a001000200063
:1010d000320037002e009000cffd07002047980017
:1010e00010c0b300104798002700370000ccb300b1
:1010f000004f78009e4090002e40900080cf50001e
:1011000002003a0000c4b300004f78001e4078008f
:10111000710107000000e000020032001000200012
:101120001e003700af010700e24f500002003a00f6
:1011300010002000190037002e00900010407800a9
:10114000004f78002e0090000000e8002007980073
:101150001e407800600107000000e000020032003d
:10116000100020000d0037009e010700e24f5000e4
:1011700002003a0010002000080037001e409000d6
:101180000040e800104798009e4090002e409000dc
:1011900080cf5000d5ff3400420107000080fa00e4
:1011a000000006000200fa00004f78002d01070041
:1011b0000000e00002003200100020002200370092
:1011c000c0c7b300440107000000e0000200320085
:1011d000100020001c00370082010700e24f500081
:1011e00002003a0010002000170037000040eb001a
:1011f000390107000000e00002003200100020006a
:101200001100370077010700e24f500002003a005a
:10121000100020000c0037001e4078002e0107004f
:101220000000e0000200320010002000060037003d
:101230006c010700e24f500002003a00100020004d
:1012400001003700170107000080fa0000000600c7
:101250000200fa00004f7800b07d2900a1022000b2
:101260004204070080c3b300ceff07000000e00087
:10127000020032001000200051003700d082200010
:10128000010020003904070090c3b300c5ff070028
:101290000000e0000200320010002000480037008b
:1012a000d0822000010020003004070040c1b300bc
:1012b000bcff07000000e000020032001000200028
:1012c0003f003700d08220000100200027040700e3
:1012d0009e4078006fc060000047b000b1ff07007b
:1012e0000000e0000200320010002000340037004f
:1012f000d0822000010020001c0407001e80fb009b
:101300004400de00004078004045b000a5ff070023
:101310000000e0000200320010002000280037002a
:10132000d08220000100200010040700c0c6b300d6
:101330009cff07000000e0000200320010002000c7
:101340001f00370090742f00410d20000704070094
:1013500080c3b30093ff07000000e00002003200ea
:101360001000200016003700d0822000010020006d
:10137000fe030700c0c0b3008aff07000000e000c2
:1013800002003200100020000d003700d082200043
:1013900001002000f503070010c0b30081ff070023
:1013a0000000e000020032001000200004003700be
:1013b0001013220021002000ec0307000000eb00c6
:1013c0000080fa00000006000000fa005003200030
:1013d000101388001000200020138800c00028008f
:1013e000001388000080fa00000006000400fa00e4
:1013f000000f780011079800000000000013800023
:10140000620060000000e000fcff3a001e0078006f
:10141000104078000080fb004013880000000000ae
:101420000113800000022000008060000000e00046
:10143000fbff3a0040138000804078001e009000bf
:10144000014878000080fa00000006001800fa0049
:10145000100f9800210f9800320f98000000eb0049
:10146000000f78000000eb00100798000000eb0070
:10147000700798000000eb00000f9800100020009b
:10148000600798001e0890000000e00005003a0088
:101490000000eb00500798007000470020079800fc
:1014a00004003700ee009000510798009e0890005d
:1014b000210798003e0890000000e00005003a0077
:1014c0000000eb00400798006e00470030079800ce
:1014d00005003700ee00900041079800be0890001c
:1014e00031079800000000000013800062006000d7
:1014f0000000e000fcff3a001d00370000138000f0
:10150000620060000000e00009003a002e00900038
:10151000104078000080fb0040138800ae0090006f
:101520005e00900000804000200798001e0fe80039
:101530000113800000022000008060000000e00035
:101540000b003a0040138000804078003e0090007d
:1015500001487800be0090004e00900000804000de
:10156000300798001e0090000000e8001007980067
:101570002e0890009e007800808f5000dfff390019
:10158000100037000113800000022000008060007e
:101590000000e0000b003a0040138000804078001b
:1015a0003e00900001487800be0090004e00900080
:1015b00000804000300798001e0090000000e80006
:1015c000100798009e0090002e089000808f500019
:1015d000ecff39001e0078000080fa0000000600d1
:1015e0000400fa00204798000e80e8008e00780082
:1015f0007eff07001e4078000080fa000000060011
:101600000600fa00000f78001107980022079800e2
:101610002e0190009e0090001e0078008bff0700b6
:101620000080fa00000006000000fa00111380009c
:1016300000402000008060000000e00002003a004e
:101640000000eb0001003700100020000080fa00cd
:10165000000006000000fa00001380000080fa007d
:10166000000006000000fa0014aea90018aea800a1
:1016700014cea90018cea800b00820000100200058
:101680003a03070018aea900b008200001002000ae
:101690003603070018cea9000000eb000080fa0016
:1016a000000006000000fa0014aea90018aea90060
:1016b00014cea90018cea800b00820000100200018
:1016c0002a03070014aea80014cea8000000eb0007
:1016d0000080fa00000006000400fa00204798008d
:1016e00014aea90014cea900ae409000014f7800be
:1016f00080c0b30010479800140037001e407800e7
:101700000004e00002003d0018aea8000100370010
:1017100018aea9001e40780000404000004f78003d
:1017200018cea80070112000010020000f03070050
:1017300018cea900100d2000010020000b030700a7
:101740001e4090000040e900104798001e409000a5
:101750000004e000e9ff3a0014aea8000000eb002e
:101760000080fa00000006000200fa0014aea80093
:1017700014cea90080c0b3001047980013003700b2
:101780005004200001002000f802070018cea80035
:101790001e40780000404000004f7800b17080008b
:1017a00000022000008060000000e0000200320023
:1017b0001e04a000010037001e04a10018cea900dd
:1017c0001e4090000040e900104798001e40900025
:1017d0000004e000eaff3a001e4078000080fa00b2
:1017e000000006000200fa0014aea80014cea90002
:1017f00018cea8005004200001002000db020700e2
:10180000b07080004500de0061406000004f78004d
:1018100018cea9001e4078000080fa0000000600e3
:101820000000fa0014aea90018aea90014cea90059
:101830005004200001002000cc02070018cea800b0
:10184000b008200001002000c802070018cea9003f
:1018500014aea8000000eb000080fa0000000600b3
:101860000000fa0014aea90018aea80014cea9001a
:1018700018cea8005004200001002000bb02070081
:1018800018cea9005004200001002000b702070074
:1018900014aea8000000eb000080fa000000060073
:1018a0000000fa00022cef00009021002060880068
:1018b000062cef000a2cef001a2cef001e2cef0074
:1018c0000008200000618800402cef00602cef0031
:1018d00000402400e3c1200011322400d2bc2a00c1
:1018e0008209780081097800106188000040240096
:1018f000e3c1200011322400d2bc2a008209780002
:1019000081097800106288000000eb00e3c120002c
:1019100011322400d2bc2a008209780081097800a3
:101920001063880030442200e3c1200011322400fb
:10193000d2bc2a00820978008109780020618800e1
:1019400030042000e3c1200011322400d2bc2a0060
:10195000820978008109780020628800800f2000c9
:10196000e3c1200011322400d2bc2a008209780091
:101970008109780020638800262cef00462cef00b8
:10198000662cef00282cef00482cef00682cef00ad
:101990002a2cef004a2cef006a2cef002c2cef00d1
:1019a0004c2cef006c2cef00322cef00522cef008f
:1019b000722cef00342cef00542cef00742cef004d
:1019c000382cef00582cef00782cef003a2cef0069
:1019d0005a2cef007a2cef003c2cef005c2cef002f
:1019e0007c2cef003e2cef005e2cef007e2cef00f5
:1019f00000002800006088000080fa000000060057
:101a00000000fa000080fa00000006000000fa0062
:101a10003140800000202000008060000000e000d5
:101a200002003200f6ff07000728a9000080fa0034
:101a3000000006000000fa000080fa000000060026
:101a40000000fa003140800000202000008060008b
:101a50000000e00002003200f6ff07000bc8a900fa
:101a60000080fa00000006000000fa000080fa0082
:101a7000000006000000fa00314080000020200035
:101a8000008060000000e00002003200f6ff070066
:101a90000be8a9000080fa00000006000000fa0030
:101aa0000080fa00000006000000fa0031408000cb
:101ab00000202000008060000000e00002003200f2
:101ac000f6ff07000c08a9000080fa0000000600dd
:101ad0000000fa00003a80000080fa0000000600d2
:101ae0000200fa00faff0700000f78001e007800dd
:101af000240007000004e00002003200000028007b
:101b0000710007001e0078002a0007000004e000b2
:101b100002003200000024006b0007001e00780065
:101b2000320007000004e000020032000020200024
:101b3000650007001e0078003a0007000004e0007e
:101b400002003200000820005f0007001e0078003d
:101b5000420007000004e000020032000004200000
:101b6000590007001e0078004a0007000004e0004a
:101b70000200320000012000530007000080fa003c
:101b8000000006000400fa00100798000040eb0077
:101b9000004f78001e0090000000e00002003d00b1
:101ba00010c0b300004f78001e4078000080fa009b
:101bb000000006000400fa00100798000040eb0047
:101bc000004f78009e00900000002400008060001c
:101bd0000000e0000200320010c0b300004f7800a7
:101be0001e4078000080fa00000006000400fa00a1
:101bf000100798000040eb00004f78009e00900016
:101c000000202000008060000000e00002003200a0
:101c100010c0b300004f78001e4078000080fa002a
:101c2000000006000400fa00100798000040eb00d6
:101c3000004f78009e0090000008200000806000a7
:101c40000000e0000200320010c0b300004f780036
:101c50001e4078000080fa00000006000400fa0030
:101c6000100798000040eb00004f78009e009000a5
:101c700000042000008060000000e000020032004c
:101c800010c0b300004f78001e4078000080fa00ba
:101c9000000006000400fa00100798000040eb0066
:101ca000004f78001e009000700060000000e0000f
:101cb0000200320010c0b300004f78001e407800d0
:101cc0000080fa00000006000200fa00000f780011
:101cd0009e80ea00003a800000806000003a8800a0
:101ce0000080fa00000006000000fa004027ef0024
:101cf0000080fa00000006000000fa0000812000c9
:101d000000588800d000200010588800062bef00f3
:101d100000002100205888000a2bef00082bef005c
:101d20000c2bef000e2bef000088a900102bef000a
:101d3000122bef00162bef0000002100a0588800a6
:101d40001a2bef00182bef001c2bef001e2bef00bf
:101d500001c8a900202bef00222bef00262bef005b
:101d600000002100205988002a2bef00282bef00cb
:101d70002c2bef002e2bef000308a900302bef00d7
:101d8000322bef00362bef0000002100a059880015
:101d90003a2bef00382bef003c2bef003e2bef00ef
:101da0000488a90001eba8000080fa0000000600ea
:101db0000000fa000080fa00000006000000fa00af
:101dc00000408000700060000000e000020032006f
:101dd000f7ff07000088a9000080fa000000060055
:101de0000000fa000080fa00000006000000fa007f
:101df0000140800000002400008060000000e0003e
:101e000002003200f6ff070001c8a9000080fa00b6
:101e1000000006000000fa000080fa000000060042
:101e20000000fa00114080000010200000806000d7
:101e30000000e00002003200f6ff07000308a900de
:101e40000080fa00000006000000fa000080fa009e
:101e5000000006000000fa002040800070006000d2
:101e60000000e00002003200f7ff07000488a9002c
:101e70000080fa00000006000000fa000621ef00d2
:101e800050aa20006008880000032800800888000d
:101e9000408180000000e00002003a0040f920008c
:101ea0002400070000e8a90020e8a800c0082100dd
:101eb0008040eb00014878000080fa000000060036
:101ec0000200fa00000f78009e0078006108880088
:101ed000c00821008040eb00014878000080fa0033
:101ee000000006000000fa00600880000080fa0090
:101ef000000006000200fa00000f78009e00780043
:101f000031088800c00821008040eb0001487800bb
:101f10000080fa00000006000000fa00300880008f
:101f20000080fa00000006000000fa000080fa00bd
:101f3000000006000200fa00000f780020e8a90067
:101f40009e0078004181880020e8a8000080fa0007
:101f5000000006000000fa00c00821008040eb00ed
:101f60000148780020e8a80011e1a8000080fa00ec
:101f7000000006000000fa0011e1a90020e8a90015
:101f80000080fa00000006000200fa00c0082100ec
:101f9000104f78001e4078000004e000030032007b
:101fa000c00821008040eb00014878001e40780006
:101fb0000080fa00000006000000fa00d0082100ae
:101fc000104078000080fb000080fa00000006004e
:101fd0000000fa00d00821008040eb0001487800a2
:101fe0000080fa00000006000000fa00042eef0056
:101ff000182eef00f0002000007088007098250077
:10200000a07088000c2eef00202eef000a2eef00ab
:102010001e2eef00062eef001a2eef000e2eef0000
:102020004008200010718800113a8000f00b200059
:1020300000816000600420007105200023742000ee
:102040008049780081497800824978008133800096
:1020500000fc2f00008060009000b30080338800f7
:1020600030c1b300cce6b70040c1b300cde6b70045
:102070009133800000fc2f00008060000030a00041
:1020800090338800103a8000000178000260a000c0
:10209000600420007105200023742000804978002e
:1020a0008149780082497800080ea80020062100a6
:1020b000070007000268a9002268a8000080fa0053
:1020c000000006000000fa000080fa000000060090
:1020d0000200fa00000f78002268a9009e00780034
:1020e000318188002268a8000080fa000000060004
:1020f0000200fa00000f78001e007800f4ff0700cd
:102100000080fa00000006000000fa000020230012
:10211000203a88004827ef004e27ef00d012200019
:10212000303a88006027ef006227ef006427ef0055
:102130006627ef006a27ef006c27ef006e27ef009d
:102140001200200080072000a10920003374200025
:102150008049780081497800824978001200200087
:10216000600420007105200023742000804978005d
:10217000814978008249780000000000103a800010
:10218000610060000000e000fcff3a000000000079
:10219000113a800000022000008060000000e00092
:1021a000fbff32000080fa00000006000000fa0089
:1021b000404e2800001988000040200010198800b7
:1021c000f0812100201988002823ef000020200042
:1021d000701988003023ef0000102000901988004b
:1021e0002623ef00a00f2100050007000080fa0061
:1021f000000006000000fa000080fa00000006005f
:102200000200fa00000f78001e007800508188005c
:102210000080fa00000006000000fa000140800083
:1022200000002200008060000000e0000600320094
:10223000508180000000e0000200320050818000e8
:102240000000010001a8a9000080fa0000000600bb
:102250000200fa00000f780021028000200f200009
:10226000008060001e007000200288000080fa00dc
:10227000000006000000fa00c3e8a800000000000b
:10228000000000000080fa00000006000000fa00d4
:1022900055ff0700430007009bff07004afc0700ab
:1022a000c2ff07007efd0700f3fe070092fe070055
:1022b000f0ff070000022000e5ff07000080fa00a1
:0422c0000000060014
:020000040000fa
:1022c4006c100000200000008000000024100000ba
:1022d4000200000082000000ffff00002610000042
:1022e40002000000800000008c10000002000000ca
:1022f40080000000281000000200000080000000a0
:102304002a10000002000000800000002c100000d1
:1023140040000000800000000010000024000000c5
:08232400800000000000000031
:020000040000fa
:10232c000000fa0075ff07000080fa0000000600ac
:10233c000000fa00003a80000080fa00000006005d
:10234c000000fa00e3fd07000080fa000000060020
:10235c000000fa0061fe07000080fa000000060091
:020000040000fa
:10236c00f03fb1000180b10006003500ee0309001a
:10237c0000000000403fb1000180b100fbff3d00b8
:10238c001000b000203fb0000200350000800900b2
:08239c00000000000000060033
:020000040000fa
:1023a4000000fa0041428000000027000100700094
:1023b4004042880011428000f0ff280080806000c5
:1023c4000000230001007000104288000080fa0021
:1023d40000000600000f78009e007800218188002c
:1023e400ffff37000000fa00c006210080077800d4
:1023f40040082100000188000080fa000000060067
:020000040000fa
:020000040005f5
:04570000ffffff00a8
:020000040000fa
:020000040005f5
:04572000ffff000087
:020000040000fa
:020000040005f5
:04573000f8ff00007e
:020000040000fa
:020000040005f5
:045738007bff0000f3
:020000040000fa
:020000040005f5
:0457400095ff0000d1
:020000040000fa
:020000040005f5
:04574800ffff00005f
:020000040000fa
:020000040005f5
:04575000fdff000059
:020000040000fa
:020000040005f5
:04575800000000004d
:020000040000fa
:020000040005f5
:045760000000000045
:020000040000fa
:020000040005f5
:04576800000000003d
:020000040000fa
:020000040005f5
:045770000000000035
:020000040000fa
:020000040005f5
:04577800feff000030
:020000040000fa
:020000040005f5
:04578000ffff000027
:020000040000fa
:020000040005f5
:04578800ffff00001f
:00000001FF
