:020000040000fa
:080000000002040000000000f2
:020000040000fa
:0400080006030000eb
:020000040000fa
:04000c0018030000d5
:020000040000fa
:0400100030030000b9
:020000040000fa
:040014000e030000d7
:020000040000fa
:0400180020030000c1
:020000040000fa
:04001c0028030000b5
:020000040000fa
:0400200038030000a1
:020000040000fa
:04002400a80300002d
:020000040000fa
:04002800a803000029
:020000040000fa
:04002c00a803000025
:020000040000fa
:04003000a803000021
:020000040000fa
:04003400a80300001d
:020000040000fa
:04003800a803000019
:020000040000fa
:04003c00a803000015
:020000040000fa
:04004000a803000011
:020000040000fa
:04004400a80300000d
:020000040000fa
:04004800a803000009
:020000040000fa
:04004c00a803000005
:020000040000fa
:04005000a803000001
:020000040000fa
:04005400a8030000fd
:020000040000fa
:04005800a8030000f9
:020000040000fa
:04005c00a8030000f5
:020000040000fa
:04006000a8030000f1
:020000040000fa
:04006400a8030000ed
:020000040000fa
:04006800a8030000e9
:020000040000fa
:04006c00a8030000e5
:020000040000fa
:04007000a8030000e1
:020000040000fa
:040074007a0300000b
:020000040000fa
:04007800a8030000d9
:020000040000fa
:04007c00a8030000d5
:020000040000fa
:04008000a8030000d1
:020000040000fa
:04008400a8030000cd
:020000040000fa
:04008800a8030000c9
:020000040000fa
:04008c00a8030000c5
:020000040000fa
:04009000a8030000c1
:020000040000fa
:04009400a8030000bd
:020000040000fa
:04009800a8030000b9
:020000040000fa
:04009c00a8030000b5
:020000040000fa
:0400a000a8030000b1
:020000040000fa
:0400a400a8030000ad
:020000040000fa
:0400a800a8030000a9
:020000040000fa
:0400ac00a8030000a5
:020000040000fa
:0400b000a8030000a1
:020000040000fa
:0400b400a80300009d
:020000040000fa
:0400b800a803000099
:020000040000fa
:0400bc00a803000095
:020000040000fa
:0400c000a803000091
:020000040000fa
:0400c400a80300008d
:020000040000fa
:0400c800a803000089
:020000040000fa
:0400cc00a803000085
:020000040000fa
:0400d000a803000081
:020000040000fa
:0400d400a80300007d
:020000040000fa
:0400d800a803000079
:020000040000fa
:0400dc00a803000075
:020000040000fa
:0400e000a803000071
:020000040000fa
:0400e400a80300006d
:020000040000fa
:0400e800a803000069
:020000040000fa
:0400ec00a803000065
:020000040000fa
:0400f000a803000061
:020000040000fa
:0400f400a80300005d
:020000040000fa
:0400f800a803000059
:020000040000fa
:0400fc00a803000055
:020000040000fa
:04010000a803000050
:020000040000fa
:04010400a80300004c
:020000040000fa
:04010800a803000048
:020000040000fa
:04010c00a803000044
:020000040000fa
:04011000a803000040
:020000040000fa
:04011400a80300003c
:020000040000fa
:04011800a803000038
:020000040000fa
:04011c00a803000034
:020000040000fa
:04012000a803000030
:020000040000fa
:04012400a80300002c
:020000040000fa
:04012800a803000028
:020000040000fa
:04012c00a803000024
:020000040000fa
:04013000a803000020
:020000040000fa
:04013400a80300001c
:020000040000fa
:04013800a803000018
:020000040000fa
:04013c00a803000014
:020000040000fa
:04014000a803000010
:020000040000fa
:04014400a80300000c
:020000040000fa
:04014800a803000008
:020000040000fa
:04014c00a803000004
:020000040000fa
:04015000a803000000
:020000040000fa
:04015400a8030000fc
:020000040000fa
:04015800a8030000f8
:020000040000fa
:04015c00a8030000f4
:020000040000fa
:04016000a8030000f0
:020000040000fa
:04016400a8030000ec
:020000040000fa
:04016800a8030000e8
:020000040000fa
:04016c00a8030000e4
:020000040000fa
:04017000a8030000e0
:020000040000fa
:04017400a8030000dc
:020000040000fa
:04017800a8030000d8
:020000040000fa
:04017c00a8030000d4
:020000040000fa
:04018000a8030000d0
:020000040000fa
:04018400a8030000cc
:020000040000fa
:04018800a8030000c8
:020000040000fa
:04018c00a8030000c4
:020000040000fa
:04019000a8030000c0
:020000040000fa
:04019400a8030000bc
:020000040000fa
:04019800a8030000b8
:020000040000fa
:04019c00a8030000b4
:020000040000fa
:0401a000a8030000b0
:020000040000fa
:0401a400a8030000ac
:020000040000fa
:0401a800a8030000a8
:020000040000fa
:0401ac00a8030000a4
:020000040000fa
:0401b000a8030000a0
:020000040000fa
:0401b400a80300009c
:020000040000fa
:0401b800a803000098
:020000040000fa
:0401bc00a803000094
:020000040000fa
:0401c000a803000090
:020000040000fa
:0401c400a80300008c
:020000040000fa
:0401c800a803000088
:020000040000fa
:0401cc00a803000084
:020000040000fa
:0401d000a803000080
:020000040000fa
:0401d400a80300007c
:020000040000fa
:0401d800a803000078
:020000040000fa
:0401dc00a803000074
:020000040000fa
:0401e000a803000070
:020000040000fa
:0401e400a80300006c
:020000040000fa
:0401e800a803000068
:020000040000fa
:0401ec00a803000064
:020000040000fa
:0401f000a803000060
:020000040000fa
:0401f400a80300005c
:020000040000fa
:0401f800a803000058
:020000040000fa
:0401fc00a803000054
:020000040000fa
:04020000a80300004f
:020000040000fa
:04020400a80300004b
:020000040000fa
:04020800a803000047
:020000040000fa
:04020c00a803000043
:020000040000fa
:04021000a80300003f
:020000040000fa
:04021400a80300003b
:020000040000fa
:04021800a803000037
:020000040000fa
:04021c00a803000033
:020000040000fa
:04022000a80300002f
:020000040000fa
:04022400a80300002b
:020000040000fa
:04022800a803000027
:020000040000fa
:04022c00a803000023
:020000040000fa
:04023000a80300001f
:020000040000fa
:04023400a80300001b
:020000040000fa
:04023800a803000017
:020000040000fa
:04023c00a803000013
:020000040000fa
:04024000a80300000f
:020000040000fa
:04024400a80300000b
:020000040000fa
:04024800a803000007
:020000040000fa
:04024c00a803000003
:020000040000fa
:04025000a8030000ff
:020000040000fa
:04025400a8030000fb
:020000040000fa
:04025800a8030000f7
:020000040000fa
:04025c00a8030000f3
:020000040000fa
:04026000a8030000ef
:020000040000fa
:04026400a8030000eb
:020000040000fa
:04026800a8030000e7
:020000040000fa
:04026c00a8030000e3
:020000040000fa
:04027000a8030000df
:020000040000fa
:04027400a8030000db
:020000040000fa
:04027800a8030000d7
:020000040000fa
:04027c00a8030000d3
:020000040000fa
:04028000a8030000cf
:020000040000fa
:04028400a8030000cb
:020000040000fa
:04028800a8030000c7
:020000040000fa
:04028c00a8030000c3
:020000040000fa
:04029000a8030000bf
:020000040000fa
:04029400a8030000bb
:020000040000fa
:04029800a8030000b7
:020000040000fa
:04029c00a8030000b3
:020000040000fa
:0402a000a8030000af
:020000040000fa
:0402a400a8030000ab
:020000040000fa
:0402a800a8030000a7
:020000040000fa
:0402ac00a8030000a3
:020000040000fa
:0402b000a80300009f
:020000040000fa
:0402b400a80300009b
:020000040000fa
:0402b800a803000097
:020000040000fa
:0402bc00a803000093
:020000040000fa
:0402c000a80300008f
:020000040000fa
:0402c400a80300008b
:020000040000fa
:0402c800a803000087
:020000040000fa
:0402cc00a803000083
:020000040000fa
:0402d000a80300007f
:020000040000fa
:0402d400a80300007b
:020000040000fa
:0402d800a803000077
:020000040000fa
:0402dc00a803000073
:020000040000fa
:0402e000a80300006f
:020000040000fa
:0402e400a80300006b
:020000040000fa
:0402e800a803000067
:020000040000fa
:0402ec00a803000063
:020000040000fa
:0402f000a80300005f
:020000040000fa
:0402f400a80300005b
:020000040000fa
:0402f800a803000057
:020000040000fa
:0402fc00a803000053
:020000040000fa
:04030000a80300004e
:020000040000fa
:04030400a80300004a
:020000040000fa
:04030800a803000046
:020000040000fa
:04030c00a803000042
:020000040000fa
:04031000a80300003e
:020000040000fa
:100400002f6623000eff24000e018800000000006c
:10041000000020000000e000020032000001200087
:100420002002880014000700cb0007000000e00055
:1004300003003a00a03b200001002000020037002a
:100440000000200001002000810f70000100320038
:100450000f000700000020000000e0000200320052
:1004600000000200000000005c1f0200000000000d
:100470000040da000000fe00200020000000e00044
:1004800002003200100020009001880000000600e9
:10049000a1028800800478000000eb001f003700f4
:1004a000e284440054a0b4009905ba00e2844400f8
:1004b00054a0b4009906ba00e284440054a0b400e9
:1004c0000006eb00476fde00fd07b200ae018800ba
:1004d000636ce10003003a000ad801000000eb0061
:1004e0000e003700606ce10008003a00004deb00a0
:1004f0000a05e800020039003420ec000af0a000f0
:100500008b05e900f9ff3e00040037006168e10057
:10051000010032000086eb000b00070019c7ba008b
:100520000e04e0001905ba0003003a000a00e000da
:10053000dbff3a0000000600fe07b200ae028800b2
:100540008a047800f5ff37000cd0a300e20f4d00bd
:100550001c00390089027800354dba000a05e80010
:10056000020039003420ec000af0a0008b05e900fd
:100570000f003200254dba000a05e80002003900dc
:100580003420ec000af0a0008b05e90008003200de
:100590000c00e0000600320015cdba000a05e800a4
:1005a000020039003420ec000af0a0008b05e900bd
:1005b0008984e80054a0b4000b00e000e2ff3a0098
:1005c000000006009902ba00055d78008b05e9007d
:1005d000f7ff3200c82ade00055d78008b05e900d0
:1005e000f3ff32000c00e000f1ff320019ddba0029
:1005f000eeff3700182a040000000000ae2a0400b5
:10060000000000000e1c0400000000003600f8008e
:10061000c028a9000000eb00241407003600f800f1
:1006200026140700c048a900100020001f1407006e
:100630003600f800c068a900200020001b14070045
:100640003600f800c088a900300020001714070009
:100650003600f800c0a8a9004000200013140700cd
:100660003600f800c608a900700020000f1407002b
:100670003600f80021468000001020000080600055
:100680000000e00003003200c508a900c0002000ff
:10069000061407002146800000002800008060004a
:1006a0000000e00003003200c5e8a900800020003f
:1006b000fe13070021468000000220000080600039
:1006c0000000e00003003200c4a8a9009000200050
:1006d000f613070020468000700060000000e00074
:1006e00003003200c488a900a0002000ef13070017
:1006f000ffff37003600f800809fbe00829fbe00db
:10070000849fbe00869fbe000000fa00104080005b
:10071000680060000000e00006003200b080800049
:100720000000e00002003200b08080000000010004
:100730000268a9000080fa004f03be004f02be000d
:100740004f01be004f00be003600f9000040060019
:100750000040da000000fe00000005008000780084
:10076000010178003104e000fdff3a000000510073
:04077000000006007f
:020000040000fa
:100774003c3600002000000080000000141000003f
:100784000200000082000000ffff000016100000bd
:1007940002000000800000005c360000020000003f
:1007a400800000001810000002000000800000001b
:1007b4005e36000002000000800000006036000089
:1007c40002000000800000001a1000000224000053
:1007d4008200000000000c00001900002500320017
:1007e400003e00004b0057000064000071007d00d3
:1007f400008a00009600a30000af0000bc00c900fe
:1008040000d50000e200ee0000fb00000701140028
:10081400012101002d013a000146010053015f004e
:10082400016c010078018500019201009e01ab007a
:1008340001b70100c401d00001dd0100ea01f600a6
:10084400010302000f021c000228020035024100cd
:10085400024e02005b0267000274020080028d00f7
:1008640002990200a602b30002bf0200cc02d80023
:1008740002e50200f102fe00020a0300170324004d
:10088400033003003d0349000356030062036f0075
:10089400037c03008803950003a10300ae03ba00a0
:1008a40003c70300d303e00003ed0300f9030600cc
:1008b400041204001f042b000438040045045100f2
:1008c400045e04006a0477000483040090049c001e
:1008d40004a90400b604c20004cf0400db04e80049
:1008e40004f4040001050d00051a05002705330072
:1008f400054005004c0559000565050072057e009c
:10090400058b05009805a40005b10500bd05ca00c6
:1009140005d60500e305ef0005fc050008061500f3
:10092400062206002e063b00064706005406600019
:10093400066d060079068600069306009f06ac0045
:1009440006b80600c506d10006de0600ea06f70072
:100954000603070010071d00072907003607420099
:10096400074f07005b0768000774070081078d00c5
:10097400079a0700a707b30007c00700cc07d900f0
:1009840007e50700f207fe00070b0800170824001c
:10099400083108003d084a000856080063086f0043
:1009a400087c08008808950008a10800ae08ba0071
:1009b40008c70800d408e00008ed0800f90806009c
:1009c400091209001f092b000938090044095100c4
:1009d400095d09006a0976000983090090099c00f1
:1009e40009a90900b509c20009ce0900db09e7001d
:1009f40009f40900000a0d000a190a00260a320047
:100a04000a3f0a004b0a58000a640a00710a7e0071
:100a14000a8a0a00970aa3000ab00a00bc0ac9009d
:100a24000ad50a00e20aee000afb0a00070b1400ca
:100a34000b200b002d0b39000b460b00520b5f00f3
:100a44000b6b0b00780b84000b910b009d0baa0021
:100a54000bb60b00c30bd0000bdc0b00e90bf5004d
:100a64000b020c000e0c1b000c270c00340c400075
:100a74000c4d0c00590c66000c720c007f0c8b00a2
:100a84000c980c00a40cb1000cbd0c00ca0cd600d0
:100a94000ce30c00ef0cfc000c080d00150d2100fc
:100aa4000d2e0d003a0d47000d530d00600d6c0026
:100ab4000d790d00850d92000d9e0d00ab0db70054
:100ac4000dc40d00d00ddd000de90d00f60d020082
:100ad4000e0f0e001b0e28000e340e00410e4d00aa
:100ae4000e590e00660e72000e7f0e008b0e9800db
:100af4000ea40e00b10ebd000eca0e00d60ee30009
:100b04000eef0e00fc0e08000f150f00210f2e0033
:100b14000f3a0f00470f53000f600f006c0f79005e
:100b24000f850f00910f9e000faa0f00b70fc3008f
:100b34000fd00f00dc0fe9000ff50f0002100e00bc
:100b4400101b100027103400104010004c105900e6
:100b54001065100072107e00108b10009710a40016
:100b640010b01000bd10c90010d61000e210ee0045
:100b740010fb100007111400112011002d11390071
:100b84001146110052115f00116b1100771184009e
:100b9400119011009d11a90011b61100c211cf00ce
:100ba40011db1100e711f400110012000d121900fd
:100bb4001226120032123f00124b12005712640028
:100bc400127012007d12890012961200a212ae0059
:100bd40012bb1200c712d40012e01200ed12f90089
:100be4001205130012131e00132b130037134400b5
:100bf400135013005c1369001375130082138e00e5
:100c0400139a1300a713b30013c01300cc13d90015
:100c140013e51300f113fe00130a14001714230044
:100c2400142f14003c1448001455140061146d0072
:100c3400147a140086149300149f1400ab14b800a3
:100c440014c41400d114dd0014e91400f6140200d5
:100c5400150f15001b1527001534150040154d0000
:100c64001559150065157200157e15008b15970032
:100c740015a31500b015bc0015c81500d515e10065
:100c840015ee1500fa150600161316001f162c0093
:100c94001638160044165100165d160069167600c3
:100ca400168216008e169b0016a71600b416c000f6
:100cb40016cc1600d916e50016f11600fe160a0029
:100cc4001716170023172f00173c17004817540056
:100cd400176117006d1779001786170092179e0089
:100ce40017ab1700b717c30017d01700dc17e800bd
:100cf40017f5170001180e00181a180026183300eb
:100d0400183f18004b1858001864180070187d001c
:100d1400188918009518a20018ae1800ba18c70050
:100d240018d31800df18ec0018f818000419100084
:100d3400191d190029193500194219004e195a00b4
:100d44001967190073197f00198c19009819a400e8
:100d540019b11900bd19c90019d61900e219ee001c
:100d640019fa1900071a13001a1f1a002c1a38004e
:100d74001a441a00511a5d001a691a00751a820081
:100d84001a8e1a009a1aa7001ab31a00bf1acb00b7
:100d94001ad81a00e41af0001afd1a00091b1500eb
:100da4001b211b002e1b3a001b461b00531b5f001c
:100db4001b6b1b00771b84001b901b009c1ba80053
:100dc4001bb51b00c11bcd001bda1b00e61bf20088
:100dd4001bfe1b000b1c17001c231c002f1c3c00bb
:100de4001c481c00541c60001c6d1c00791c8500f0
:100df4001c911c009e1caa001cb61c00c21ccf0027
:100e04001cdb1c00e71cf3001c001d000c1d18005b
:100e14001d241d00311d3d001d491d00551d61008f
:100e24001d6e1d007a1d86001d921d009f1dab00c6
:100e34001db71d00c31dcf001ddc1d00e81df400ff
:100e44001d001e000d1e19001e251e00311e3d0032
:100e54001e4a1e00561e62001e6e1e007a1e870069
:100e64001e931e009f1eab001eb71e00c41ed000a2
:100e74001edc1e00e81ef4001e011f000d1f1900d9
:100e84001f251f00311f3e001f4a1f00561f62000e
:100e94001f6e1f007a1f87001f931f009f1fab0048
:100ea4001fb71f00c41fd0001fdc1f00e81ff40081
:100eb4001f0020000d2019002025200031203d00b6
:100ec4002049200056206200206e20007a208600ef
:100ed400209220009e20ab0020b72000c320cf002a
:100ee40020db2000e720f300200021000c21180063
:100ef4002124210030213c0021482100552161009a
:100f0400216d210079218500219121009d21a900d5
:100f140021b62100c221ce0021da2100e621f2000f
:100f240021fe21000a221600222322002f223b0048
:100f34002247220053225f00226b22007722830083
:100f4400229022009c22a80022b42200c022cc00bd
:100f540022d82200e422f00022fc220008231500fb
:100f6400232123002d2339002345230051235d0031
:100f74002369230075238100238d23009923a50071
:100f840023b22300be23ca0023d62300e223ee00ab
:100f940023fa230006241200241e24002a243600e7
:100fa400244224004e245a002466240072247e0025
:100fb400248b24009724a30024af2400bb24c7005f
:100fc40024d32400df24eb0024f7240003250f009e
:100fd400251b250027253300253f25004b255700d9
:100fe400256325006f257b002587250093259f0019
:100ff40025ab2500b725c30025cf2500db25e70059
:1010040025f32500ff250b002617260023262f0095
:10101400263b260047265300265f26006b267700d2
:10102400268326008f269b0026a72600b326bf0012
:1010340026cb2600d726e30026ef2600fb26070052
:10104400271327001f272b002737270043274f008c
:10105400275b270067277200277e27008a279600d0
:1010640027a22700ae27ba0027c62700d227de0012
:1010740027ea2700f6270200280e28001a2826004f
:10108400283228003d2849002855280061286d0091
:101094002879280085289100289d2800a928b500d2
:1010a40028c12800cc28d80028e42800f028fc0017
:1010b4002808290014292000292c29003829440053
:1010c400294f29005b296700297329007f298b0098
:1010d40029972900a329ae0029ba2900c629d200dc
:1010e40029de2900ea29f60029022a000d2a19001e
:1010f4002a252a00312a3d002a492a00552a61005e
:101104002a6c2a00782a84002a902a009c2aa800a3
:101114002ab32a00bf2acb002ad72a00e32aef00e9
:101124002afb2a00062b12002b1e2b002a2b36002a
:101134002b422b004d2b59002b652b00712b7d006e
:101144002b882b00942ba0002bac2b00b82bc400b5
:101154002bcf2b00db2be7002bf32b00ff2b0a00fc
:101164002c162c00222c2e002c3a2c00452c51003d
:101174002c5d2c00692c74002c802c008c2c980085
:101184002ca42c00af2cbb002cc72c00d32cde00cd
:101194002cea2c00f62c02002d0d2d00192d250013
:1011a4002d312d003d2d48002d542d00602d6c0057
:1011b4002d772d00832d8f002d9a2d00a62db200a2
:1011c4002dbe2d00c92dd5002de12d00ed2df800eb
:1011d4002d042e00102e1c002e272e00332e3f002f
:1011e4002e4a2e00562e62002e6e2e00792e850079
:1011f4002e912e009c2ea8002eb42e00bf2ecb00c4
:101204002ed72e00e32eee002efa2e00062f11000c
:101214002f1d2f00292f34002f402f004c2f570053
:101224002f632f006f2f7a002f862f00922f9d009f
:101234002fa92f00b52fc0002fcc2f00d82fe300eb
:101244002fef2f00fb2f0600301230001e30290034
:101254003035300041304c003058300063306f007e
:10126400307b300086309200309e3000a930b500cb
:1012740030c03000cc30d80030e33000ef30fb0019
:101284003006310012311d00312931003531400062
:10129400314c310057316300316f31007a318600af
:1012a400319131009d31a80031b43100c031cb00ff
:1012b40031d73100e231ee0031f93100053211004d
:1012c400321c320028323300323f32004a32560098
:1012d400326132006d3279003284320090329b00e8
:1012e40032a73200b232be0032c93200d532e00039
:1012f40032ec3200f7320300330f33001a33260086
:10130400333133003d334800335433005f336b00d3
:101314003376330082338d0033993300a433b00025
:1013240033bb3300c733d20033de3300e933f50077
:10133400330034000c341700342334002e343900c5
:101344003445340050345c003467340073347e0018
:10135400348a34009534a10034ac3400b834c3006a
:1013640034ce3400da34e50034f13400fc340800bf
:10137400351335001f352a003535350041354c000d
:101384003558350063356e00357a35008535910062
:10139400359c3500a835b30035be3500ca35d500b7
:1013a40035e13500ec35f700350336000e361a000a
:1013b4003625360030363c003647360052365e005d
:1013c4003669360075368000368b36009736a200b3
:1013d40036ad3600b936c40036cf3600db36e6000b
:1013e40036f23600fd360800371437001f372a005e
:1013f4003736370041374c003758370063376e00b3
:10140400377a370085379000379c3700a737b2000a
:1014140037bd3700c937d40037df3700eb37f60064
:10142400370138000d381800382338002e383a00b8
:101434003845380050385c003867380072387d0011
:101444003889380094389f0038ab3800b638c1006a
:1014540038cc3800d838e30038ee3800f9380500c5
:10146400391039001b392600393239003d3948001a
:10147400395339005f396a003975390080398b0076
:1014840039973900a239ad0039b83900c439cf00d1
:1014940039da3900e539f00039fc3900073a12002d
:1014a4003a1d3a00283a34003a3f3a004a3a550085
:1014b4003a603a006c3a77003a823a008d3a9800e2
:1014c4003aa33a00af3aba003ac53a00d03adb0040
:1014d4003ae63a00f23afd003a083b00133b1e009c
:1014e4003b293b00343b40003b4b3b00563b6100f7
:1014f4003b6c3b00773b82003b8d3b00993ba40057
:101504003baf3b00ba3bc5003bd03b00db3be600b6
:101514003bf13b00fd3b08003c133c001e3c290012
:101524003c343c003f3c4a003c553c00603c6b0072
:101534003c773c00823c8d003c983c00a33cae00d0
:101544003cb93c00c43ccf003cda3c00e53cf00034
:101554003cfb3c00063d11003d1c3d00273d320094
:101564003d3e3d00493d54003d5f3d006a3d7500f0
:101574003d803d008b3d96003da13d00ac3db70054
:101584003dc23d00cd3dd8003de33d00ee3df900b8
:101594003d043e000f3e1a003e253e00303e3b0017
:1015a4003e463e00513e5c003e673e00723e7d007a
:1015b4003e873e00923e9d003ea83e00b33ebe00e4
:1015c4003ec93e00d43edf003eea3e00f53e000048
:1015d4003f0b3f00163f21003f2c3f00373f4200a6
:1015e4003f4c3f00573f62003f6d3f00783f830010
:1015f4003f8e3f00993fa4003faf3f00ba3fc40075
:101604003fcf3f00da3fe5003ff03f00fb3f0600dd
:10161400401140001c402600403140003c4047003f
:10162400405240005d406800407240007d408800a8
:10163400409340009e40a90040b44000be40c90011
:1016440040d44000df40ea0040f54000ff400a007b
:101654004115410020412b004135410040414b00e0
:101664004156410061416b004176410081418c004b
:1016740041974100a141ac0041b74100c241cd00b6
:1016840041d74100e241ed0041f8410002420d0022
:101694004218420023422d004238420043424e0089
:1016a4004258420063426e004279420083428e00f7
:1016b40042994200a442ae0042b94200c442cf0063
:1016c40042d94200e442ef0042f9420004430f00d1
:1016d400431a430024432f00433a430044434f003a
:1016e400435a430064436f00437a430084438f00aa
:1016f400439a4300a443af0043ba4300c443cf001a
:1017040043da4300e443ef0043fa430004440f0088
:10171400441a440024442f004439440044444f00f4
:101724004459440064446f004479440084448e0066
:1017340044994400a444ae0044b94400c344ce00d8
:1017440044d94400e344ee0044f8440003450e0049
:101754004518450023452d004538450042454d00b8
:101764004558450062456d004577450082458c002b
:1017740045974500a145ac0045b74500c145cc009f
:1017840045d64500e145eb0045f6450000460b0013
:101794004615460020462a00463546003f464a0084
:1017a400465446005f466900467446007e468900fa
:1017b400469346009e46a80046b34600bd46c80070
:1017c40046d24600dd46e70046f24600fc460600e7
:1017d400471147001b472600473047003b47450059
:1017e400475047005a476400476f470079478400d1
:1017f400478e47009847a30047ad4700b847c2004b
:1018040047cd4700d747e10047ec4700f6470100c2
:10181400480b480015482000482a480034483f0037
:101824004849480054485e004868480073487d00b1
:101834004887480092489c0048a64800b148bb002d
:1018440048c54800d048da0048e44800ef48f900a9
:10185400480349000e491800492249002d49370020
:10186400494149004c495600496049006a4975009c
:10187400497f490089499400499e4900a849b2001a
:1018840049bd4900c749d10049dc4900e649f00097
:1018940049fa4900054a0f004a194a00234a2e0012
:1018a4004a384a00424a4c004a564a00614a6b0090
:1018b4004a754a007f4a8a004a944a009e4aa80010
:1018c4004ab24a00bd4ac7004ad14a00db4ae50091
:1018d4004af04a00fa4a04004b0e4b00184b22000f
:1018e4004b2d4b00374b41004b4b4b00554b5f008e
:1018f4004b6a4b00744b7e004b884b00924b9c0010
:101904004ba64b00b14bbb004bc54b00cf4bd90092
:101914004be34b00ed4bf7004b024c000c4c160014
:101924004c204c002a4c34004c3e4c00484c520095
:101934004c5c4c00674c71004c7b4c00854c8f0018
:101944004c994c00a34cad004cb74c00c14ccb009f
:101954004cd54c00df4ce9004cf34c00fd4c070027
:101964004d114d001c4d26004d304d003a4d4400a4
:101974004d4e4d00584d62004d6c4d00764d80002b
:101984004d8a4d00944d9e004da84d00b24dbc00b3
:101994004dc64d00d04dda004de44d00ed4df7003d
:1019a4004d014e000b4e15004e1f4e00294e3300c4
:1019b4004e3d4e00474e51004e5b4e00654e6f004b
:1019c4004e794e00834e8d004e974e00a04eaa00d5
:1019d4004eb44e00be4ec8004ed24e00dc4ee60061
:1019e4004ef04e00fa4e03004f0d4f00174f2100ea
:1019f4004f2b4f00354f3f004f494f00524f5c0073
:101a04004f664f00704f7a004f844f008e4f9700ff
:101a14004fa14f00ab4fb5004fbf4f00c94fd2008d
:101a24004fdc4f00e64ff0004ffa4f0003500d001b
:101a34005017500021502b00503450003e504800a5
:101a4400505250005c506500506f50007950830034
:101a5400508c50009650a00050aa5000b350bd00c6
:101a640050c75000d150da0050e45000ee50f80056
:101a7400500151000b511500511f510028513200e3
:101a8400513c510045514f005159510063516c0074
:101a94005176510080518900519351009d51a60007
:101aa40051b05100ba51c30051cd5100d751e0009b
:101ab40051ea5100f451fd005107520011521a002d
:101ac400522452002e523700524152004a525400be
:101ad400525e520067527100527b520084528e0053
:101ae40052975200a152ab0052b45200be52c700ea
:101af40052d15200da52e40052ee5200f752010081
:101b0400530a530014531d005327530031533a0012
:101b1400534453004d535700536053006a537300aa
:101b2400537d53008653900053995300a353ac0044
:101b340053b65300bf53c90053d25300dc53e500de
:101b440053ef5300f8530200540b540015541e0075
:101b54005428540031543b00544454004e5457000c
:101b6400546054006a547300547d540086549000a9
:101b740054995400a354ac0054b55400bf54c80045
:101b840054d25400db54e40054ee5400f7540100e2
:101b9400550a550013551d0055265500305539007a
:101ba400554255004c555500555e55006855710019
:101bb400557a550084558d0055975500a055a900b8
:101bc40055b35500bc55c50055cf5500d855e10057
:101bd40055ea5500f455fd005506560010561900f7
:101be400562256002c563500563e56004756510094
:101bf400565a560063566d00567656007f56880036
:101c0400569256009b56a40056ad5600b756c000d7
:101c140056c95600d256dc0056e55600ee56f7007b
:101c2400560057000a571300571c570025572e001b
:101c34005738570041574a00575357005c576600be
:101c4400576f570078578100578a570093579d0064
:101c540057a65700af57b80057c15700ca57d4000a
:101c640057dd5700e657ef0057f8570001580a00b0
:101c7400581358001d582600582f58003858410052
:101c8400584a580053585c00586558006e587800fc
:101c9400588158008a589300589c5800a558ae00a3
:101ca40058b75800c058c90058d25800db58e4004f
:101cb40058ed5800f658ff005808590011591a00f9
:101cc400592359002c593500593e5900485951009f
:101cd400595a590062596b00597459007d5986004c
:101ce400598f59009859a10059aa5900b359bc00f9
:101cf40059c55900ce59d70059e05900e959f200a5
:101d040059fb5900045a0d005a165a001f5a28004c
:101d14005a305a00395a42005a4b5a00545a5d00fc
:101d24005a665a006f5a78005a815a00895a9200aa
:101d34005a9b5a00a45aad005ab65a00bf5ac8005a
:101d44005ad05a00d95ae2005aeb5a00f45afd000c
:101d54005a055b000e5b17005b205b00295b3200b9
:101d64005b3a5b00435b4c005b555b005e5b66006b
:101d74005b6f5b00785b81005b8a5b00925b9b001e
:101d84005ba45b00ad5bb5005bbe5b00c75bd000d2
:101d94005bd85b00e15bea005bf35b00fb5b040088
:101da4005c0d5c00165c1e005c275c00305c390036
:101db4005c415c004a5c53005c5b5c00645c6d00ed
:101dc4005c755c007e5c87005c8f5c00985ca100a5
:101dd4005caa5c00b25cbb005cc45c00cc5cd5005b
:101de4005cdd5c00e65cef005cf75c00005d090014
:101df4005d115d001a5d23005d2b5d00345d3c00c8
:101e04005d455d004e5d56005d5f5d00675d700081
:101e14005d795d00815d8a005d925d009b5da3003c
:101e24005dac5d00b55dbd005dc65d00ce5dd700f7
:101e34005ddf5d00e85df0005df95d00015e0a00b4
:101e44005e125e001b5e24005e2c5e00355e3d006b
:101e54005e465e004e5e57005e5f5e00685e700028
:101e64005e785e00815e89005e925e009a5ea300e9
:101e74005eab5e00b45ebc005ec55e00cd5ed600a7
:101e84005ede5e00e65eef005ef75e00005f080067
:101e94005f105f00195f21005f2a5f00325f3b0023
:101ea4005f435f004b5f54005f5c5f00645f6d00e5
:101eb4005f755f007e5f86005f8e5f00975f9f00a7
:101ec4005fa75f00b05fb8005fc05f00c95fd1006b
:101ed4005fd95f00e25fea005ff25f00fb5f03002f
:101ee400600b600014601c00602460002c603500ee
:101ef400603d600045604e00605660005e606600b4
:101f0400606f600077607f00608760009060980079
:101f140060a06000a860b10060b96000c160c90041
:101f240060d26000da60e20060ea6000f260fb0008
:101f3400600361000b611300611b610024612c00cc
:101f4400613461003c614400614c610055615d0095
:101f5400616561006d617500617d610085618e0060
:101f6400619661009e61a60061ae6100b661be002b
:101f740061c66100cf61d70061df6100e761ef00f6
:101f840061f76100ff610700620f620017621f00c2
:101f94006228620030623800624062004862500089
:101fa4006258620060626800627062007862800059
:101fb400628862009062980062a06200a862b00029
:101fc40062b86200c062c80062d06200d862e000f9
:101fd40062e86200f062f8006200630008631000c7
:101fe40063186300206328006330630038633f0094
:101ff400634763004f635700635f630067636f0069
:10200400637763007f638700638f630097639e0039
:1020140063a66300ae63b60063be6300c663ce000e
:1020240063d66300dd63e50063ed6300f563fd00e3
:10203400630564000d641400641c640024642c00b3
:10204400643464003b644300644b640053645b0089
:10205400646264006a647200647a64008264890061
:10206400649164009964a10064a86400b064b80039
:1020740064c06400c864cf0064d76400df64e60011
:1020840064ee6400f664fe00640565000d651500e9
:10209400651c650024652c00653465003b654300c0
:1020a400654b650052655a0065626500696571009b
:1020b40065796500806588006590650097659f0077
:1020c40065a76500ae65b60065bd6500c565cd0054
:1020d40065d46500dc65e30065eb6500f365fa0033
:1020e400650266000966110066196600206628000c
:1020f400662f660037663e00664666004e665500eb
:10210400665d660064666c00667366007b668200ca
:10211400668a66009166990066a06600a866af00ac
:1021240066b76600be66c60066cd6600d566dc008e
:1021340066e46600eb66f30066fa6600026709006f
:102144006711670018672000672767002e6736004d
:10215400673d670045674c00675467005b67620032
:10216400676a6700716779006780670087678f0017
:10217400679667009d67a50067ac6700b467bb00fe
:1021840067c26700ca67d10067d86700e067e700e5
:1021940067ee6700f667fd00670468000c681300cb
:1021a400681a6800226829006830680038683f00af
:1021b400684668004d685500685c680063686a009a
:1021c4006872680079688000688868008f68960083
:1021d400689d6800a468ac0068b36800ba68c10070
:1021e40068c96800d068d70068de6800e568ed005b
:1021f40068f46800fb680200690969001169180045
:10220400691f690026692d00693469003c6943002f
:10221400694a690051695800695f690066696e001e
:10222400697569007c698300698a6900916998000d
:10223400699f6900a669ad0069b56900bc69c300fe
:1022440069ca6900d169d80069df6900e669ed00ef
:1022540069f46900fb6902006a096a00106a1700e0
:102264006a1e6a00256a2c006a336a003a6a4100d1
:102274006a486a004f6a56006a5d6a00646a6b00c5
:102284006a726a00796a80006a876a008e6a9500b9
:102294006a9c6a00a36aaa006ab16a00b86abf00ad
:1022a4006ac66a00cd6ad4006adb6a00e26ae800a2
:1022b4006aef6a00f66afd006a046b000b6b120099
:1022c4006b196b00206b26006b2d6b00346b3b008d
:1022d4006b426b00496b50006b566b005d6b640086
:1022e4006b6b6b00726b79006b7f6b00866b8d0080
:1022f4006b946b009b6ba2006ba86b00af6bb6007a
:102304006bbd6b00c36bca006bd16b00d86bdf0075
:102314006be56b00ec6bf3006bfa6b00006c070071
:102324006c0e6c00156c1b006c226c00296c2f0069
:102334006c366c003d6c44006c4a6c00516c580067
:102344006c5e6c00656c6c006c726c00796c800067
:102354006c866c008d6c94006c9a6c00a16ca80067
:102364006cae6c00b56cbc006cc26c00c96ccf0068
:102374006cd66c00dd6ce3006cea6c00f06cf7006a
:102384006cfe6c00046d0b006d116d00186d1e0069
:102394006d256d002c6d32006d396d003f6d46006a
:1023a4006d4c6d00536d59006d606d00666d6d0070
:1023b4006d746d007a6d81006d876d008e6d940073
:1023c4006d9b6d00a16da7006dae6d00b46dbb007b
:1023d4006dc16d00c86dce006dd56d00db6de20082
:1023e4006de86d00ef6df5006dfb6d00026e080089
:1023f4006e0f6e00156e1b006e226e00286e2f008d
:102404006e356e003b6e42006e486e004f6e550096
:102414006e5b6e00626e68006e6e6e00756e7b00a1
:102424006e816e00886e8e006e946e009b6ea100ad
:102434006ea76e00ae6eb4006eba6e00c16ec700b9
:102444006ecd6e00d36eda006ee06e00e66eed00c7
:102454006ef36e00f96eff006e066f000c6f1200d3
:102464006f186f001f6f25006f2b6f00316f3800de
:102474006f3e6f00446f4a006f506f00576f5d00ee
:102484006f636f00696f6f006f766f007c6f8200ff
:102494006f886f008e6f94006f9a6f00a16fa70012
:1024a4006fad6f00b36fb9006fbf6f00c56fcc0025
:1024b4006fd26f00d86fde006fe46f00ea6ff00038
:1024c4006ff66f00fc6f0200700970000f7015004a
:1024d400701b700021702700702d7000337039005c
:1024e400703f700045704b007051700057705d0074
:1024f4007063700069706f00707570007b7081008c
:10250400708770008d709300709970009f70a500a3
:1025140070ab7000b170b70070bd7000c370c900bb
:1025240070cf7000d570db0070e17000e670ec00d5
:1025340070f27000f870fe00700471000a711000ef
:10254400711671001c712100712771002d71330007
:10255400713971003f714500714a71005071560024
:10256400715c710062716800716d71007371790042
:10257400717f710085718b007190710096719c0060
:1025840071a27100a771ad0071b37100b971bf0080
:1025940071c47100ca71d00071d67100db71e100a1
:1025a40071e77100ec71f20071f87100fe710300c3
:1025b400720972000f721400721a720020722600df
:1025c400722b720031723700723c72004272480002
:1025d400724d720053725900725e72006472690027
:1025e400726f720075727a007280720086728b004c
:1025f4007291720096729c0072a27200a772ad0072
:1026040072b27200b872bd0072c37200c972ce0099
:1026140072d47200d972df0072e47200ea72ef00c1
:1026240072f57200fa720000730573000b731000e8
:10263400731673001b732100732673002c7331000f
:10264400733773003c734200734773004d73520039
:10265400735873005d736300736873006d73730064
:10266400737873007e738300738873008e73930092
:10267400739973009e73a30073a97300ae73b400bf
:1026840073b97300be73c40073c97300ce73d400ee
:1026940073d97300de73e40073e97300ee73f4001e
:1026a40073f97300fe730400740974000e7414004b
:1026b400741974001e742300742974002e7433007a
:1026c400743974003e744300744874004e745300ab
:1026d400745874005d746300746874006d747200df
:1026e400747774007d748200748774008c74910014
:1026f400749774009c74a10074a67400ab74b00049
:1027040074b67400bb74c00074c57400ca74cf007e
:1027140074d47400da74df0074e47400e974ee00b5
:1027240074f37400f874fd007402750008750d00ec
:102734007512750017751c007521750026752b0020
:102744007530750035753a00753f7500447549005c
:10275400754e750053755800755d75006275670098
:10276400756c750071757600757b750080758500d4
:10277400758a75008f759400759975009e75a30010
:1027840075a87500ad75b20075b77500bc75c1004c
:1027940075c67500cb75d00075d47500d975de008b
:1027a40075e37500e875ed0075f27500f775fc00ca
:1027b4007500760005760a00760f76001476190007
:1027c400761e760022762700762c76003176360047
:1027d400763b76003f764400764976004e76530089
:1027e400765776005c766100766676006a766f00ce
:1027f4007674760079767d007682760087768c0012
:102804007690760095769a00769f7600a376a80057
:1028140076ad7600b176b60076bb7600c076c4009d
:1028240076c97600ce76d20076d77600dc76e000e4
:1028340076e57600ea76ee0076f37600f776fc002d
:102844007601770005770a00770f77001377180071
:10285400771c770021772600772a77002f773300bb
:10286400773877003c774100774677004a774f0006
:102874007753770058775c007761770065776a0053
:10288400776e770073777700777c770080778500a1
:10289400778977008e779200779777009b77a000ef
:1028a40077a47700a977ad0077b27700b677bb003d
:1028b40077bf7700c377c80077cc7700d177d5008e
:1028c40077da7700de77e20077e77700eb77f000de
:1028d40077f47700f877fd007701780005780a002f
:1028e400780e780013781700781b7800207824007d
:1028f400782878002d783100783578003a783e00d1
:102904007842780046784b00784f78005378580026
:10291400785c780060786400786978006d7871007c
:10292400787578007a787e007882780086788b00d3
:10293400788f780093789700789b7800a078a4002b
:1029440078a87800ac78b00078b57800b978bd0084
:1029540078c17800c578c90078ce7800d278d600de
:1029640078da7800de78e20078e67800eb78ef0039
:1029740078f37800f778fb0078ff78000379070094
:10298400790b79000f791400791879001c792000eb
:102994007924790028792c00793079003479380049
:1029a400793c790040794400794879004c795000a9
:1029b4007954790058795c00796079006479680009
:1029c400796c790070797400797879007c79800069
:1029d4007984790088798c007990790094799700ca
:1029e400799b79009f79a30079a77900ab79af002f
:1029f40079b37900b779bb0079be7900c279c60092
:102a040079ca7900ce79d20079d67900da79dd00f5
:102a140079e17900e579e90079ed7900f079f4005c
:102a240079f87900fc7900007a047a00077a0b00bf
:102a34007a0f7a00137a16007a1a7a001e7a220024
:102a44007a257a00297a2d007a317a00347a38008e
:102a54007a3c7a00407a43007a477a004b7a4f00f6
:102a64007a527a00567a5a007a5d7a00617a650061
:102a74007a687a006c7a70007a737a00777a7b00cd
:102a84007a7e7a00827a86007a897a008d7a90003a
:102a94007a947a00987a9b007a9f7a00a27aa600a8
:102aa4007aaa7a00ad7ab1007ab47a00b87abc0016
:102ab4007abf7a00c37ac6007aca7a00cd7ad10086
:102ac4007ad47a00d87adb007adf7a00e27ae600f8
:102ad4007ae97a00ed7af0007af47a00f77afb006a
:102ae4007afe7a00027b05007b097b000c7b1000d8
:102af4007b137b00177b1a007b1e7b00217b240049
:102b04007b287b002b7b2f007b327b00357b3900bd
:102b14007b3c7b00407b43007b467b004a7b4d0033
:102b24007b517b00547b57007b5b7b005e7b6100a9
:102b34007b657b00687b6b007b6f7b00727b750021
:102b44007b797b007c7b7f007b827b00867b89009a
:102b54007b8c7b00907b93007b967b00997b9d0014
:102b64007ba07b00a37ba6007baa7b00ad7bb0008f
:102b74007bb37b00b77bba007bbd7b00c07bc3000b
:102b84007bc77b00ca7bcd007bd07b00d37bd70087
:102b94007bda7b00dd7be0007be37b00e67bea0005
:102ba4007bed7b00f07bf3007bf67b00f97bfc0084
:102bb4007bff7b00037c06007c097c000c7c0f00ff
:102bc4007c127c00157c18007c1b7c001e7c210080
:102bd4007c247c00287c2b007c2e7c00317c3400ff
:102be4007c377c003a7c3d007c407c00437c460082
:102bf4007c497c004c7c4f007c527c00557c580006
:102c04007c5b7c005e7c61007c647c00677c6a0089
:102c14007c6d7c006f7c72007c757c00787c7b0012
:102c24007c7e7c00817c84007c877c008a7c8d0097
:102c34007c907c00927c95007c987c009b7c9e0020
:102c44007ca17c00a47ca7007ca97c00ac7caf00a8
:102c54007cb27c00b57cb8007cba7c00bd7cc00032
:102c64007cc37c00c67cc8007ccb7c00ce7cd100bd
:102c74007cd47c00d67cd9007cdc7c00df7ce10049
:102c84007ce47c00e77cea007cec7c00ef7cf200d6
:102c94007cf57c00f77cfa007cfd7c00ff7c020064
:102ca4007d057d00077d0a007d0d7d000f7d1200ee
:102cb4007d157d00177d1a007d1d7d001f7d22007e
:102cc4007d257d00277d2a007d2d7d002f7d32000e
:102cd4007d347d00377d3a007d3c7d003f7d4100a1
:102ce4007d447d00477d49007d4c7d004e7d510033
:102cf4007d537d00567d58007d5b7d005e7d6000c8
:102d04007d637d00657d68007d6a7d006d7d6f005b
:102d14007d727d00747d77007d797d007c7d7e00f1
:102d24007d817d00837d85007d887d008a7d8d0089
:102d34007d8f7d00927d94007d977d00997d9b0021
:102d44007d9e7d00a07da3007da57d00a77daa00ba
:102d54007dac7d00af7db1007db37d00b67db80054
:102d64007dba7d00bd7dbf007dc17d00c47dc600f0
:102d74007dc87d00cb7dcd007dcf7d00d27dd4008c
:102d84007dd67d00d97ddb007ddd7d00df7de20029
:102d94007de47d00e67de8007deb7d00ed7def00c8
:102da4007df17d00f47df6007df87d00fa7dfd0067
:102db4007dff7d00017e03007e057e00087e0a0003
:102dc4007e0c7e000e7e10007e127e00157e1700a3
:102dd4007e197e001b7e1d007e1f7e00227e240045
:102de4007e267e00287e2a007e2c7e002e7e3000e9
:102df4007e327e00357e37007e397e003b7e3d008c
:102e04007e3f7e00417e43007e457e00477e490032
:102e14007e4b7e004d7e4f007e517e00537e5500da
:102e24007e577e00597e5b007e5d7e005f7e610082
:102e34007e637e00657e67007e697e006b7e6d002a
:102e44007e6f7e00717e73007e757e00777e7900d2
:102e54007e7b7e007d7e7f007e817e00827e84007c
:102e64007e867e00887e8a007e8c7e008e7e900028
:102e74007e927e00937e95007e977e00997e9b00d5
:102e84007e9d7e009f7ea0007ea27e00a47ea60082
:102e94007ea87e00a97eab007ead7e00af7eb10031
:102ea4007eb27e00b47eb6007eb87e00ba7ebb00e1
:102eb4007ebd7e00bf7ec1007ec27e00c47ec60091
:102ec4007ec77e00c97ecb007ecd7e00ce7ed00044
:102ed4007ed27e00d37ed5007ed77e00d87eda00f7
:102ee4007edc7e00dd7edf007ee17e00e27ee400ab
:102ef4007ee67e00e77ee9007eeb7e00ec7eee005f
:102f04007eef7e00f17ef3007ef47e00f67ef70015
:102f14007ef97e00fb7efc007efe7e00ff7e0100cb
:102f24007f027f00047f06007f077f00097f0a007d
:102f34007f0c7f000d7f0f007f107f00127f130036
:102f44007f157f00167f18007f197f001b7f1c00f0
:102f54007f1e7f001f7f21007f227f00237f2500ab
:102f64007f267f00287f29007f2b7f002c7f2d0068
:102f74007f2f7f00307f32007f337f00347f360025
:102f84007f377f00397f3a007f3b7f003d7f3e00e3
:102f94007f3f7f00417f42007f437f00457f4600a3
:102fa4007f477f00497f4a007f4b7f004d7f4e0063
:102fb4007f4f7f00517f52007f537f00547f560024
:102fc4007f577f00587f5a007f5b7f005c7f5d00e6
:102fd4007f5e7f00607f61007f627f00637f6500aa
:102fe4007f667f00677f68007f697f006b7f6c006e
:102ff4007f6d7f006e7f6f007f707f00727f730034
:103004007f747f00757f76007f777f00797f7a00f9
:103014007f7b7f007c7f7d007f7e7f007f7f8000c1
:103024007f817f00837f84007f857f00867f870088
:103034007f887f00897f8a007f8b7f008c7f8d0053
:103044007f8e7f008f7f90007f917f00927f93001f
:103054007f947f00957f96007f977f00987f9900eb
:103064007f9a7f009b7f9c007f9d7f009e7f9f00b7
:103074007fa07f00a17fa2007fa37f00a47fa50083
:103084007fa67f00a77fa7007fa87f00a97faa0053
:103094007fab7f00ac7fad007fae7f00af7faf0022
:1030a4007fb07f00b17fb2007fb37f00b47fb500f3
:1030b4007fb57f00b67fb7007fb87f00b97fba00c5
:1030c4007fba7f00bb7fbc007fbd7f00be7fbe0098
:1030d4007fbf7f00c07fc1007fc17f00c27fc3006c
:1030e4007fc47f00c47fc5007fc67f00c77fc70041
:1030f4007fc87f00c97fc9007fca7f00cb7fcc0017
:103104007fcc7f00cd7fce007fce7f00cf7fd000ed
:103114007fd07f00d17fd2007fd27f00d37fd400c5
:103124007fd47f00d57fd5007fd67f00d77fd7009f
:103134007fd87f00d87fd9007fda7f00da7fdb0079
:103144007fdb7f00dc7fdd007fdd7f00de7fde0054
:103154007fdf7f00df7fe0007fe07f00e17fe10031
:103164007fe27f00e27fe3007fe37f00e47fe4000f
:103174007fe57f00e57fe6007fe67f00e77fe700ed
:103184007fe87f00e87fe9007fe97f00ea7fea00cb
:103194007fea7f00eb7feb007fec7f00ec7fed00ac
:1031a4007fed7f00ed7fee007fee7f00ee7fef008e
:1031b4007fef7f00f07ff0007ff07f00f17ff10070
:1031c4007ff17f00f27ff2007ff27f00f37ff30054
:1031d4007ff37f00f47ff4007ff47f00f57ff50038
:1031e4007ff57f00f57ff6007ff67f00f67ff6001f
:1031f4007ff77f00f77ff7007ff77f00f87ff80005
:103204007ff87f00f87ff9007ff97f00f97ff900ec
:103214007ff97f00fa7ffa007ffa7f00fa7ffa00d5
:103224007ffb7f00fb7ffb007ffb7f00fb7ffb00be
:103234007ffb7f00fc7ffc007ffc7f00fc7ffc00a9
:103244007ffc7f00fc7ffc007ffd7f00fd7ffd0095
:103254007ffd7f00fd7ffd007ffd7f00fd7ffd0082
:103264007ffd7f00fd7ffd007ffd7f00fd7ffd0072
:103274007ffd7f00fd7ffd007ffd7f00fd7ffe0061
:103284007f9ebb00ffff9e00bbffff0048bfff0007
:10329400ffbfc200ffff0700c6ffff0022c9ff00f7
:1032a400ff13cc00ffffdb00ceffff007dd1ff004a
:1032b400fffbd300ffff5600d6ffff0092d8ff00ac
:1032c400ffaeda00ffffae00dcffff0092deff007e
:1032d400ff5de000ffff0f00e2ffff00a9e3ff0036
:1032e400ff2ee500ffff9e00e6ffff00fae7ff0068
:1032f400ff43e900ffff7b00eaffff00a2ebff00b2
:10330400ffbaec00ffffc200edffff00bceeff00c0
:10331400ffa9ef00ffff8900f0ffff005df1ff0050
:10332400ff26f200ffffe400f2ffff0097f3ff0027
:10333400ff42f400ffffe300f4ffff007bf5ff0012
:10334400ff0bf600ffff9400f6ffff0015f7ff00e8
:10335400ff8ff700ffff0300f8ffff0071f8ff0085
:10336400ffd8f800ffff3a00f9ffff0097f9ff00cc
:10337400ffeff900ffff4200faffff0091faff00a0
:10338400ffdcfa00ffff2200fbffff0065fbff00ec
:10339400ffa4fb00ffffe000fbffff0018fcff00a1
:1033a400ff4efc00ffff8100fcffff00b1fcff00ab
:1033b400ffdefc00ffff0900fdffff0032fdff0000
:1033c400ff58fd00ffff7c00fdffff009ffdff0095
:1033d400ffc0fd00ffffde00fdffff00fcfdff005e
:1033e400ff17fe00ffff3200feffff004afeff0052
:1033f400ff62fe00ffff7800feffff008dfeff006e
:10340400ffa1fe00ffffb400feffff00c5feff00aa
:10341400ffd6fe00ffffe600feffff00f5feff0003
:10342400ff04ff00ffff1100ffffff001effff006e
:10343400ff2aff00ffff3500ffffff0040ffff00f2
:10344400ff4bff00ffff5400ffffff005effff0084
:10345400ff66ff00ffff6e00ffffff0076ffff0027
:10346400ff7eff00ffff8500ffffff008bffff00d3
:10347400ff91ff00ffff9700ffffff009dffff008c
:10348400ffa2ff00ffffa700ffffff00acffff004c
:10349400ffb1ff00ffffb500ffffff00b9ffff0012
:1034a400ffbdff00ffffc000ffffff00c4ffff00e0
:1034b400ffc7ff00ffffca00ffffff00cdffff00b3
:1034c400ffd0ff00ffffd200ffffff00d5ffff008a
:1034d400ffd7ff00ffffd900ffffff00dbffff0066
:1034e400ffddff00ffffdf00ffffff00e1ffff0044
:1034f400ffe3ff00ffffe400ffffff00e6ffff0024
:10350400ffe7ff00ffffe800ffffff00eaffff0007
:10351400ffebff00ffffec00ffffff00edffff00ec
:10352400ffeeff00ffffef00ffffff0000000000c1
:103534000011000000001200000000001300000051
:103544000014000000001500000000001600000038
:103554000018000000001900000000001a0000001c
:10356400001c000000001d00000000001f000000ff
:1035740000210000000023000000000025000000de
:103584000027000000002900000000002b000000bc
:10359400002e000000003000000000003300000096
:1035a4000036000000003900000000003c0000006c
:1035b400004000000000430000000000470000003d
:1035c400004b000000004f00000000005400000009
:1035d4000059000000005e000000000063000000cd
:1035e4000069000000006f0000000000750000008a
:1035f400007b000000008200000000008a00000040
:103604000092000000009a0000000000a2000000e8
:1036140000ac00000000b50000000000c000000085
:1036240000cb00000000d60000000000e200000013
:1036340000ef00000000fc00000000000b0100008f
:10364400001a010000002a00010000003b010000f4
:10365400004c010000005f00010000007301000045
:103664000088010000009e0001000000b601000077
:1036740000ce01000000e900010000000402000087
:10368400002202000000400002000000610200006d
:10369400008402000000a80002000000ce02000026
:1036a40000f7020000002200030000004f030000a6
:1036b400007f03000000b20003000000e8030000e4
:1036c4000020040000005c00040000009b040000d3
:1036d40000de040000002400050000006f05000067
:1036e40000be05000000110006000000690600008d
:1036f40000c6060000002800070000008f07000035
:1037040000fd07000000710008000000eb08000045
:10371400006c09000000f50009000000850a0000a3
:10372400001d0b000000be000b000000690c00002f
:10373400001c0d000000da000d000000a30e0000c4
:1037440000770f0000005700100000004411000033
:10375400003e120000004600130000005e1400004a
:10376400008515000000bd001600000006180000ca
:10377400006219000000d2001a000000571c00006b
:1037840000f11d000000a3001f0000006e210000d6
:103794000052230000005200250000006e270000a4
:1037a40000aa2900000005002c000000832e000060
:1037b400002531000000ed0033000000de3600007b
:1037c40000f93900000041003d000000b84000004d
:1037d40000624400000000001c34000020020000cd
:1037e40080000000001000001000000080000000b5
:1037f400101000000400000082000000000400001b
:083804000000000000000000bc
:020000040000fa
:10380c000000fa000060fe000080fa0000000600d4
:10381c000200fa00b0708000640060000000e0005c
:10382c00040032000621ef0010c0b3000ff0b70007
:10383c00270037000fd0bf000004e0002400320046
:10384c0031088000010f7800301f20009e007800a6
:10385c00808f50001b00360000af20009e007800c7
:10386c00808f500019003e00102620009e0078002a
:10387c00808f500002003e000e70ef000f003700ea
:10388c00e1d92f001e8f40001e0078004300de009f
:10389c00000f7800f00f20009e007800808f500001
:1038ac000300360000c0eb000ef0b7000300370039
:1038bc001e007800004078000ef0b7000f70ef008b
:1038cc00030037000000000001003700000000007a
:1038dc000080fa00000006000200fa00186ea90031
:1038ec000080eb0065030700000f7800186ea8003d
:1038fc00f0ff23001e0060000080fa0000000600ac
:10390c000a00fa0030079800410798003e0090002a
:10391c00e500b9008000eb00100798002107980023
:10392c001e019000ae0190005080800061808000ec
:10393c00020040008380480010079800210798007f
:10394c009e009000f0ff230000806000100798009c
:10395c000000eb00200798009e009000010f7800fb
:10396c00000021009e007800808f500009003e006e
:10397c001e00780080004000a00121000080400063
:10398c0090007800e0ff27000080400010079800ae
:10399c0025003700000022009e007800808f500028
:1039ac000a003e00000022001e0050008000400073
:1039bc00a00121000080400090007800e0ff27006b
:1039cc00008040001007980017003700000023000b
:1039dc009e007800808f50000a003e0000002e00f0
:1039ec001e00400080004000a0012100008040002b
:1039fc0010007800e1ff27000080500010079800ad
:103a0c0009003700000024001e0050008000400018
:103a1c00a00121000080400010007800e1ff270089
:103a2c0000805000100798001e019000ae0190001d
:103a3c004e0090008000eb00809ab900828bb90098
:103a4c0086027800050242000010b8000102420014
:103a5c008400780010079800210798002e00900031
:103a6c000080fa00000006000400fa00008fbe007f
:103a7c001e0078009e009000e00f5000e08f580070
:103a8c005400340000002100010020001e0f4000f3
:103a9c005e974800528080006380800010002f00e9
:103aac00f1ff2f00800f5100818f590018003d004d
:103abc0080808000918080003e015000ae815800d3
:103acc000200be0080808800918088008280800087
:103adc0093808000f03f200001002000800f5100f7
:103aec00818f590095003c0080808000918080007f
:103afc000240200003002000001f510001975900d4
:103b0c000040200001002000808088009180880007
:103b1c005280800063808000f0ff200001002000b4
:103b2c00800f5100818f590018003c00508080009c
:103b3c00618080003e014000ae8148000200be0062
:103b4c0050808800618088005280800063808000f3
:103b5c00f0ff200001002000800f5100818f5900e0
:103b6c0078003400528080006380800000002f00b9
:103b7c00f1ff2f00001f41000197490000002100b8
:103b8c0001002000508088006180880080808000c7
:103b9c00918080003e014000ae8148000200be00d2
:103bac0080808800918088008280800093808000d3
:103bbc00f0ff210001002000800f5100818f59007f
:103bcc0004003400f0ff21000100200080808800f8
:103bdc00918088001e0078009e009000e00f50003d
:103bec00e08f58005c003d0000002f00f1ff2f001b
:103bfc001e0f40005e97480052808000638080005a
:103c0c00f0ff200001002000800f5100818f59002f
:103c1c001800340080808000918080003e014000bc
:103c2c00ae8148000200be00808088009180880030
:103c3c008280800093808000f03f200001002000f3
:103c4c00800f5100818f590040003c008280800021
:103c5c009380800000c02f00f1ff2f00001f410057
:103c6c00019749000040200001002000808088005e
:103c7c0091808800528080006380800010002f00ab
:103c8c00f1ff2f00800f5100818f59001800350073
:103c9c0050808000618080003e014000ae81480071
:103cac000200be0050808800618088005280800035
:103cbc006380800010002f00f1ff2f00800f510057
:103ccc00818f590023003d0052808000638080006a
:103cdc000000210001002000001f41000197490055
:103cec0000002f00f1ff2f005080880061808800b9
:103cfc0080808000918080003e015000ae81580091
:103d0c000200be0080808800918088008280800044
:103d1c0093808000f0ff210001002000800f5100f3
:103d2c00818f59000c003400f0ff210001002000ad
:103d3c008080880091808800070037000000000018
:103d4c0005003700000000000300370000000000f1
:103d5c0001003700000000000080fa00000006009f
:103d6c000400fa00008fbe001e0078009e00900038
:103d7c00e00f5000e08f58000900340000002100d3
:103d8c000100200050808800618088001e017800ae
:103d9c009e01900082808800938088000a00370082
:103dac0000002f00f1ff2f005080880061808800f8
:103dbc001e0078009e00900060001000e08018004b
:103dcc0080808800918088008280800093808000b1
:103ddc00f0ff210001002000800f5100818f59005d
:103dec0004003400f0ff21000100200080808800d6
:103dfc00918088000080fa00000006000800fa009c
:103e0c002007980031079800ae0090003e0090000b
:103e1c00808f500012003900ae0090003e009000e0
:103e2c00008f5000f0ff21009e007800808f500022
:103e3c0002003e001e0078001a003700be00900001
:103e4c002e00900080805000000024000080400074
:103e5c00100798001e0090000000ea0011003700c7
:103e6c00be0090002e009000008f5000f0ff21004b
:103e7c009e007800808f500005003e009e00780068
:103e8c00110798001e0090000000ea0005003700a2
:103e9c00ae0090003e009000808050000000240096
:103eac00008040000080fa00000006001400fa00b8
:103ebc00cd05070088fe0700100798000040eb00b6
:103ecc00004f7800130037001e80fb00800040007c
:103edc00c0412300008040009e0090000108780043
:103eec001e80fb0080004000c04923000080400081
:103efc008000eb00010878001e80fb00c200dd0092
:103f0c00c0512300008140006000b8000089be0051
:103f1c001e4fe800f0c3b3009e40780080cf5000e5
:103f2c00e9ff3600e0c0210041050700e30407006b
:103f3c0031040700262cef00462cef00662cef0016
:103f4c0040ba2700a1062000c70507002cfe070079
:103f5c0080c0b300e700070029fe07000ed0bf00a9
:103f6c000080fb00c200dd00c00123000080400087
:103f7c00900090001000780030808800418088000c
:103f8c0004d0bf000004e0000400320004d0bf00e5
:103f9c000040e9001047980002003700f0c3b3005e
:103fac00104798001e4090000080fb0080004000ed
:103fbc00c041230000804000900078002107980049
:103fcc00ae0090001e0090008cff07003007980098
:103fdc000ed0bf000080fb004500dd00cf80de006e
:103fec008080880091808800000021000100200062
:103ffc00508088006180880037fe070040079800d9
:10400c0004d0bf000080fb0080004000c0412300b2
:10401c0000804000ce0090000108780004d0bf0062
:10402c000040e80004f0b700410021009140780006
:10403c00f0c3b30080cf5000010036000470ef00d5
:10404c00ce009000507e2f0080804000f0ff2300b7
:10405c000080600050079800808080009180800074
:10406c0000007800800078005e00900024fe0700bd
:10407c00600798008080800091808000800078002c
:10408c005e01900050552100000041001cfe07000d
:10409c0070079800808080009180800080007800fc
:1040ac005e019000b0aa22000000410014fe07003f
:1040bc00000f9800ee00900031618800fe00900027
:1040cc00316288008e0890003163880020b4210092
:1040dc0001002000640507009fff37000200fa0072
:1040ec00004f780010c0b300570007000000e0003c
:1040fc0002003200100020000b0037008009210064
:10410c00110020005805070000c8b3009e4078003d
:10411c0080cf500002003a0010002000020037004f
:10412c001e407800480007000080fa0000000600de
:10413c000600fa0020079800720107000000e0005a
:10414c0002003200100020003d003700c0c7b30051
:10415c00890107000000e00002003200100020007e
:10416c0037003700c7010700e24f500002003a0049
:10417c0010002000320037002e00900074f1070070
:10418c002047980010c0b300104798002700370054
:10419c0000ccb300004f78009e4090002e40900061
:1041ac0080cf500002003a0000c4b300004f7800ea
:1041bc001e407800700107000000e0000200320091
:1041cc00100020001e003700ae010700e24f500027
:1041dc0002003a0010002000190037002e00900059
:1041ec0010407800004f78002e0090000000e8008e
:1041fc00200798001e4078005f0107000000e000d7
:10420c0002003200100020000d0037009d01070055
:10421c00e24f500002003a00100020000800370066
:10422c001e4090000040e800104798009e4090000f
:10423c002e40900080cf5000d5ff34004101070084
:10424c000080fa00000006000200fa00004f78001f
:10425c002c0107000000e0000200320010002000da
:10426c0022003700c0c7b300430107000000e00084
:10427c0002003200100020001c00370081010700f2
:10428c00e24f500002003a001000200017003700e7
:10429c000040eb00380107000000e0000200320093
:1042ac00100020001100370076010700e24f50008b
:1042bc0002003a00100020000c0037001e4078006d
:1042cc002d0107000000e000020032001000200069
:1042dc00060037006b010700e24f500002003a0065
:1042ec001000200001003700160107000080fa00c2
:1042fc00000006000200fa00004f7800b07d290093
:10430c00a1022000d804070080c3b300ceff070031
:10431c000000e000020032001000200051003700c5
:10432c00d082200001002000cf04070090c3b3000e
:10433c00c5ff07000000e000020032001000200062
:10434c0048003700d082200001002000c60407007e
:10435c0040c1b300bcff07000000e00002003200c7
:10436c00100020003f003700d08220000100200008
:10437c00bd0407009e4078006fc060000047b0008d
:10438c00b1ff07000000e000020032001000200026
:10439c0034003700d082200001002000b204070056
:1043ac001e80fb004400de00004078004045b00059
:1043bc00a5ff07000000e000020032001000200002
:1043cc0028003700d082200001002000a60407003e
:1043dc00c0c6b3009cff07000000e00002003200e2
:1043ec00100020001f00370090742f00410d20009a
:1043fc009d04070080c3b30093ff07000000e0009a
:10440c00020032001000200016003700d08220007d
:10441c000100200094040700c0c0b3008aff07000d
:10442c000000e00002003200100020000d003700f8
:10443c00d0822000010020008b04070010c0b300c4
:10444c0081ff07000000e000020032001000200095
:10445c000400370010132200210020008204070002
:10446c000000eb000080fa00000006000000fa00db
:10447c001043200010138800100020002013880027
:10448c00c0002800001388000080fa00000006001d
:10449c000400fa00000f78001107980000000000db
:1044ac0000138000620060000000e000fcff3a0096
:1044bc001e007800100078004013880000000000f7
:1044cc000113800000022000008060000000e0006a
:1044dc00fbff3a001e009000411380000108780099
:1044ec000080fa00000006001800fa00100f980077
:1044fc00210f9800320f98000000eb00000f78009d
:10450c000000eb00100798000000eb00700798000b
:10451c000000eb00000f98002000200060079800be
:10452c002e0890000000d100200f98001e0890006b
:10453c000000e00005003a000000eb005007980076
:10454c00700047002007980004003700ee00900030
:10455c00510798009e089000210798003e08900093
:10456c000000e00005003a000000eb004007980056
:10457c006e0047003007980005003700ee009000f1
:10458c0041079800be089000310798000000000019
:10459c0000138000620060000000e000fcff3a00a5
:1045ac001b00370000138000620060000000e00078
:1045bc0008003a002e00900010007800401388008c
:1045cc00ae0090005e009000008040002007980034
:1045dc001e0fe80001138000000220000080600024
:1045ec000000e0000a003a003e00900041138000f9
:1045fc0001087800be0090004e0090000080400042
:10460c00300798001e0090000000e800100798008a
:10461c002e0890009e007800808f5000e1ff39003a
:10462c000f003700011380000002200000806000a2
:10463c000000e0000a003a003e00900041138000a8
:10464c0001087800be0090004e00900000804000f1
:10465c00300798001e0090000000e800100798003a
:10466c009e0090002e089000808f5000edff3900c6
:10467c001e0078000080fa00000006000400fa001a
:10468c00100798008e0078000e80e80080ff07006d
:10469c001e0078000080fa00000006000600fa00f8
:1046ac00000f78001107980022079800ae009000c8
:1046bc001e007800010178009e0090008aff070020
:1046cc000080fa00000006000000fa0011138000c0
:1046dc0000402000008060000000e00002003a0072
:1046ec000000eb0001003700100020000080fa00f1
:1046fc00000006000000fa00001380000080fa00a1
:10470c00000006000000fa0014aea90018aea800c4
:10471c0014cea90018cea800b0082000010020007b
:10472c00d103070018aea900b0082000010020003a
:10473c00cd03070018cea9000000eb000080fa00a2
:10474c00000006000000fa0014aea90018aea90083
:10475c0014cea90018cea800b0082000010020003b
:10476c00c103070014aea80014cea8000000eb0093
:10477c000080fa00000006000400fa0020479800b0
:10478c0014aea90014cea900ae409000014f7800e1
:10479c0080c0b30010479800140037001e4078000a
:1047ac000004e00002003d0018aea8000100370034
:1047bc0018aea9001e40780000404000004f780061
:1047cc0018cea8007011200001002000a6030700dd
:1047dc0018cea900100d200001002000a203070034
:1047ec001e4090000040e900104798001e409000c9
:1047fc000004e000e9ff3a0014aea8000000eb0052
:10480c000080fa00000006000200fa0014aea800b6
:10481c0014cea90080c0b3001047980013003700d5
:10482c0050042000010020008f03070018cea800c0
:10483c001e40780000404000004f7800b1708000ae
:10484c0000022000008060000000e0000200320046
:10485c001e04a000010037001e04a10018cea90000
:10486c001e4090000040e900104798001e40900048
:10487c000004e000eaff3a001e4078000080fa00d5
:10488c00000006000200fa0014aea80014cea90025
:10489c0018cea8005004200001002000720307006d
:1048ac00b07080004500de0061406000004f780071
:1048bc0018cea9001e4078000080fa000000060007
:1048cc000000fa0014aea90018aea90014cea9007d
:1048dc0050042000010020006303070018cea8003c
:1048ec00b0082000010020005f03070018cea900cb
:1048fc0014aea8000000eb000080fa0000000600d7
:10490c000000fa0014aea90018aea80014cea9003d
:10491c0018cea8005004200001002000520307000c
:10492c0018cea90050042000010020004e030700ff
:10493c0014aea8000000eb000080fa000000060096
:10494c000000fa00022cef0000002200206088001a
:10495c00062cef000a2cef001a2cef001e2cef0097
:10496c000008200000618800000820000062880018
:10497c00000820000063880000402400e3c12000f0
:10498c0011322400d2bc2a008209780081097800f7
:10499c001061880000402400e3c120001132240083
:1049ac00d2bc2a0082097800810978001062880044
:1049bc0000402400e3c1200011322400d2bc2a00a4
:1049cc008209780081097800106388003044220045
:1049dc00e3c1200011322400d2bc2a0082097800e5
:1049ec00810978002061880030442200e3c1200056
:1049fc0011322400d2bc2a00820978008109780087
:104a0c002062880030442200e3c1200011322400cf
:104a1c00d2bc2a00820978008109780020638800c2
:104a2c00262cef00462cef00662cef00282cef0014
:104a3c00482cef00682cef002a2cef004a2cef00da
:104a4c006a2cef002c2cef004c2cef006c2cef00a0
:104a5c00322cef00522cef00722cef00342cef00b4
:104a6c00542cef00742cef00382cef00582cef0076
:104a7c00782cef003a2cef005a2cef007a2cef0038
:104a8c003c2cef005c2cef007c2cef003e2cef005c
:104a9c005e2cef007e2cef000000280000608800e8
:104aac000080fa00000006000000fa000080fa0006
:104abc00000006000000fa003140800000202000b9
:104acc00008060000000e00002003200f6ff0700ea
:104adc000728a9000080fa00000006000000fa0078
:104aec000080fa00000006000000fa00314080004f
:104afc0000202000008060000000e0000200320076
:104b0c00f6ff07000bc8a9000080fa0000000600a1
:104b1c000000fa000080fa00000006000000fa0015
:104b2c003140800000202000008060000000e00088
:104b3c0002003200f6ff07000be8a9000080fa0023
:104b4c00000006000000fa000080fa0000000600d9
:104b5c000000fa003140800000202000008060003e
:104b6c000000e00002003200f6ff07000c08a9006c
:104b7c000080fa00000006000000fa00003a8000f5
:104b8c000080fa00000006000200fa00faff07009d
:104b9c00000f78001e007800240007000004e000dd
:104bac000200320000002800710007001e0078008f
:104bbc002a0007000004e00002003200000024007c
:104bcc006b0007001e007800320007000004e000b4
:104bdc000200320000202000650007001e00780053
:104bec003a0007000004e000020032000008200038
:104bfc005f0007001e007800420007000004e00080
:104c0c000200320000042000590007001e0078004a
:104c1c004a0007000004e0000200320000012000fe
:104c2c00530007000080fa00000006000400fa00a0
:104c3c00100798000040eb00004f78001e00900019
:104c4c000000e00002003d0010c0b300004f7800ef
:104c5c001e4078000080fa00000006000400fa00f4
:104c6c00100798000040eb00004f78009e00900069
:104c7c0000002400008060000000e0000200320010
:104c8c0010c0b300004f78001e4078000080fa007e
:104c9c00000006000400fa00100798000040eb002a
:104cac00004f78009e0090000020200000806000e3
:104cbc000000e0000200320010c0b300004f78008a
:104ccc001e4078000080fa00000006000400fa0084
:104cdc00100798000040eb00004f78009e009000f9
:104cec0000082000008060000000e000020032009c
:104cfc0010c0b300004f78001e4078000080fa000e
:104d0c00000006000400fa00100798000040eb00b9
:104d1c00004f78009e00900000042000008060008e
:104d2c000000e0000200320010c0b300004f780019
:104d3c001e4078000080fa00000006000400fa0013
:104d4c00100798000040eb00004f78001e00900008
:104d5c00700060000000e0000200320010c0b300e0
:104d6c00004f78001e4078000080fa00000006001a
:104d7c000200fa00000f78009e80ea00003a8000e2
:104d8c0000806000003a88000080fa0000000600f5
:104d9c000000fa004027ef000080fa000000060037
:104dac000000fa000081200000588800d00020008c
:104dbc0010588800062bef000000210020588800b6
:104dcc000a2bef00082bef000c2bef000e2bef0043
:104ddc000088a900102bef00122bef00162bef0010
:104dec0000002100a05888001a2bef00182bef00b0
:104dfc001c2bef001e2bef0001c8a900202bef008d
:104e0c00222bef00262bef000000210020598800f8
:104e1c002a2bef00282bef002c2bef002e2bef0072
:104e2c000308a900302bef00322bef00362bef00dc
:104e3c0000002100a05988003a2bef00382bef001e
:104e4c003c2bef003e2bef000488a90001eba800df
:104e5c000080fa00000006000000fa000080fa0052
:104e6c00000006000000fa000040800070006000a6
:104e7c000000e00002003200f7ff07000088a900e4
:104e8c000080fa00000006000000fa000080fa0022
:104e9c00000006000000fa00014080000000240021
:104eac00008060000000e00002003200f6ff070006
:104ebc0001c8a9000080fa00000006000000fa00fa
:104ecc000080fa00000006000000fa00114080008b
:104edc0000102000008060000000e00002003200a2
:104eec00f6ff07000308a9000080fa000000060086
:104efc000000fa000080fa00000006000000fa0032
:104f0c0020408000700060000000e00002003200d1
:104f1c00f7ff07000488a9000080fa0000000600d3
:104f2c000000fa000621ef000080eb00600888000a
:104f3c000002280080088800c06523008040eb0038
:104f4c00014878000080fa00000006000000fa001a
:104f5c000140800000082000008060000000e0009c
:104f6c0009003200d0652300104078008040e80032
:104f7c00d065230001487800c065230011c0b30040
:104f8c000148780000e8a9000080fa000000060043
:104f9c000200fa00000f78009e007800610888007b
:104fac00c06523008040eb00014878000080fa00c7
:104fbc00000006000000fa00600880000080fa0083
:104fcc00000006000200fa00000f78009e00780036
:104fdc0031088800c06523008040eb000148780050
:104fec000080fa00000006000000fa003008800083
:104ffc000080fa00000006000000fa00c0652300e3
:10500c008040eb000148780011e1a8000080fa0014
:10501c00000006000000fa0011e1a9000080fa006f
:10502c00000006000200fa00c0652300104f780053
:10503c001e4078000004e00003003200c06523002d
:10504c008040eb00014878001e4078000080fa0098
:10505c00000006000000fa00d06523001040780024
:10506c000080fb000080fa00000006000000fa003f
:10507c00d06523008040eb00014878000080fa00e6
:10508c00000006000000fa000a21ef000080eb008f
:10509c007008880000002800900888000066230033
:1050ac008040eb00014878000080fa000000060008
:1050bc000000fa0001408000001020000080600019
:1050cc000000e00009003200106623001040780058
:1050dc008040e80010662300014878000066230039
:1050ec0011c0b300014878000108a9000080fa0043
:1050fc00000006000200fa00000f78009e00780005
:10510c0071088800006623008040eb00014878009d
:10511c000080fa00000006000000fa007008800011
:10512c000080fa00000006000200fa00000f780070
:10513c009e00780051088800006623008040eb0038
:10514c00014878000080fa00000006000000fa0018
:10515c00500880000080fa00000006000000fa00f1
:10516c00006623008040eb000148780013e1a800a2
:10517c000080fa00000006000000fa0013e1a9000c
:10518c000080fa00000006000200fa00006623000e
:10519c00104f78001e4078000004e000030032003d
:1051ac00006623008040eb00014878001e40780028
:1051bc000080fa00000006000000fa0010662300d0
:1051cc00104078000080fb000080fa000000060010
:1051dc000000fa00106623008040eb0001487800c4
:1051ec000080fa00000006000000fa000021ef0029
:1051fc000080eb00100888000000280020088800c0
:10520c00e06523008040eb00014878000080fa0044
:10521c00000006000000fa000040800068006000fa
:10522c000000e00009003200f06523001040780017
:10523c008040e800f065230001487800e065230019
:10524c0011c0b300014878000068a9000080fa0082
:10525c00000006000200fa00000f78009e007800a3
:10526c0011088800e06523008040eb0001487800bd
:10527c000080fa00000006000000fa001008800010
:10528c000080fa00000006000200fa00000f78000f
:10529c009e00780001088800e06523008040eb0048
:1052ac00014878000080fa00000006000000fa00b7
:1052bc00000880000080fa00000006000000fa00e0
:1052cc00e06523008040eb000148780005e1a80070
:1052dc000080fa00000006000000fa0005e1a900b9
:1052ec000080fa00000006000200fa00e0652300ce
:1052fc00104f78001e4078000004e00003003200dc
:10530c00e06523008040eb00014878001e407800e7
:10531c000080fa00000006000000fa00f06523008f
:10532c00104078000080fb000080fa0000000600ae
:10533c000000fa00f06523008040eb000148780083
:10534c000080fa00000006000000fa00042eef00b6
:10535c00182eef00f000200000708800707e2500f1
:10536c00a07088000c2eef00202eef000a2eef000c
:10537c001e2eef00062eef001a2eef000e2eef0061
:10538c000008200010718800113a8000f00b2000fa
:10539c00008160006004200071052000237420004f
:1053ac0080497800814978008249780040c1b30077
:1053bc00cde6b7009133800000fc2f000080600028
:1053cc000030a000903388008133800000fc2f0057
:1053dc00008060009000b3008033880030c1b300bf
:1053ec00cce6b700103a8000000178000260a00003
:1053fc00600420007105200023742000804978008f
:10540c0081497800824978001c4ea80080a12200b6
:10541c00070007000268a9002268a8000080fa00b3
:10542c00000006000000fa000080fa0000000600f0
:10543c000200fa00000f78002268a9009e00780094
:10544c00b18088002268a8000080fa0000000600e5
:10545c000200fa00000f78001e007800f4ff07002d
:10546c000080fa00000006000000fa000020230073
:10547c00203a88004827ef004e27ef00d01220007a
:10548c00303a88006027ef006227ef006427ef00b6
:10549c006627ef006a27ef006c27ef006e27ef00fe
:1054ac001200200080072000a10920003374200086
